:020000040800F2
:1000000000000120A9380008E90A0008ED0A0008EC
:10001000F10A0008F50A0008F90A000800000000CB
:10002000000000000000000000000000390200088D
:10003000FD0A000800000000D1020008E1020008EB
:10004000F9380008F9380008F9380008F9380008CC
:10005000F9380008F9380008F9380008F9380008BC
:10006000F9380008F9380008F9380008F9380008AC
:10007000F9380008F9380008F9380008F93800089C
:10008000010B0008110B0008F938000800000000FF
:10009000000000000000000000000000F938000827
:1000A000F9380008F9380008F9380008F93800086C
:1000B000F9380008F9380008F9380008F93800085C
:1000C000F9380008F9380008F9380008F93800084C
:1000D000F9380008F9380008F93800080000000075
:1000E000F9380008F9380008F93800080000000065
:1000F000000000000000000000000000F9380008C7
:1001000000000000F9380008F9380008F938000844
:1001100000000000000000000000000000000000DF
:10012000F9380008210B0008310B0008F9380008E5
:10013000F938000800000000000000000000000086
:10014000000000000000000000000000F938000876
:10015000F9380008410B0008510B0008F938000875
:10016000F9380008F938000800000000000000001D
:10017000000000000000000000000000000000007F
:1001800000000000F9380008000000000000000036
:04019000F938000832
:10019400044B05481B1A062B02D9044B03B118471C
:1001A400704700BFB3000020B00000200000000032
:1001B40005490648091A891001EBD171491002D08A
:1001C400034B03B118477047B0000020B000002073
:1001D4000000000010B5064C237843B9FFF7D8FFA0
:1001E400044B13B10448AFF300800123237010BD06
:1001F400B000002000000000FC38000808B5084BDF
:100204001BB108490848AFF300800848036813B9D4
:10021400BDE80840CCE7064B002BF9D09847F7E738
:1002240000000000B4000020FC380008B0000020EA
:10023400000000001EF0040F0CBFEFF30880EFF382
:100244000980816911F8021C91BB01B590E80F1077
:10025400E047BDE800508CE80300244B93E8060017
:10026400914208BF704741B91EF0100F10D12049C8
:10027400086820F0010008600AE02CE9F00F1EF085
:10028400100F08BF2CED108AC1F838C081F822E0A5
:100294001A6092F82210906B61F0FF0E1EF0100F9E
:1002A40008BFB0EC108AB0E8F00F80F309887047FB
:1002B400104A13689942FAD801B552F821C00FC800
:1002C400E047BDE80050CCF80000704701B501F0EC
:1002D40047FDBDE80140EFF3098CBEE701B501F02D
:1002E400F9FCBDE80140EFF3098CB6E714000020E7
:1002F40034EF00E0D839000870B50F4E0F4D761B6F
:10030400B61018BF002405D0013455F8043B9847B3
:10031400A642F9D10A4E0B4D761B03F0EDFAB61046
:1003240018BF002406D0013455F8043B9847A64270
:10033400F9D170BD70BD00BF4C3A00084C3A0008BA
:10034400503A00084C3A0008844641EA000313F08E
:1003540003036DD1403A41D351F8043B40F8043BC8
:1003640051F8043B40F8043B51F8043B40F8043B8B
:1003740051F8043B40F8043B51F8043B40F8043B7B
:1003840051F8043B40F8043B51F8043B40F8043B6B
:1003940051F8043B40F8043B51F8043B40F8043B5B
:1003A40051F8043B40F8043B51F8043B40F8043B4B
:1003B40051F8043B40F8043B51F8043B40F8043B3B
:1003C40051F8043B40F8043B51F8043B40F8043B2B
:1003D40051F8043B40F8043B403ABDD2303211D3CB
:1003E40051F8043B40F8043B51F8043B40F8043B0B
:1003F40051F8043B40F8043B51F8043B40F8043BFB
:10040400103AEDD20C3205D351F8043B40F8043BCA
:10041400043AF9D2043208D0D2071CBF11F8013BC8
:1004240000F8013B01D30B8803806046704700BF8E
:10043400082A13D38B078DD010F003038AD0C3F19D
:100444000403D21ADB071CBF11F8013B00F8013B7F
:1004540080D331F8023B20F8023B7BE7043AD9D33E
:10046400013A11F8013B00F8013BF9D20B78037013
:100474004B7843708B7883706046704770B4840700
:1004840046D0541E002A41D0CDB2034602E0621E7B
:10049400E4B3144603F8015B9A07F8D1032C2ED970
:1004A400CDB245EA05250F2C45EA054519D903F1D6
:1004B40010022646103E0F2E42F8105C42F80C5CE7
:1004C40042F8085C42F8045C02F11002F2D8A4F18C
:1004D400100222F00F0204F00F041032032C134414
:1004E4000DD91E462246043A032A46F8045BFAD87C
:1004F400221F22F003020432134404F003042CB13B
:10050400C9B21C4403F8011BA342FBD170BC704761
:1005140014460346C2E700BF53B94AB9002908BFCD
:1005240000281CBF4FF0FF314FF0FF3000F07EB9C0
:10053400ADF1080C6DE904CE00F006F8DDF804E036
:10054400DDE9022304B070472DE9F0478C460E46DE
:100554000446089D002B50D18A4217466CD9B2FA42
:1005640082FEBEF1000F0BD0CEF1200420FA04F479
:1005740001FA0EF644EA060C02FA0EF700FA0EF43B
:100584004FEA1749220CBCFBF9F01FFA87F809FB64
:1005940010C642EA064600FB08F3B34209D9F6192D
:1005A40000F1FF3280F02281B34240F21F81023811
:1005B4003E44F61AA2B2B6FBF9F309FB136642EA0B
:1005C400064403FB08F8A04509D9E41903F1FF32F6
:1005D40080F00A81A04540F20781023B3C44C8EB0D
:1005E400040443EA00400021002D62D024FA0EF4F2
:1005F40000232C606B60BDE8F0878B4207D9002D87
:1006040055D0002185E841000846BDE8F087B3FADB
:1006140083F1002940F09080B34202D3824200F279
:10062400F880841A66EB03060120B446002D40D0FE
:1006340085E81010BDE8F08712B90127B7FBF2F77F
:10064400B7FA87FEBEF1000F35D1F31B4FEA174806
:100654001FFA87FC0121B3FBF8F0220C08FB1036CB
:1006640042EA06460CFB00F3B34207D9F61900F13F
:10067400FF3202D2B34200F2CE801046F61AA2B282
:10068400B6FBF8F308FB136642EA06440CFB03FCD2
:10069400A44507D9E41903F1FF3202D2A44500F2BC
:1006A400B5801346CCEB040443EA00409CE729469A
:1006B4002846BDE8F087CEF1200106FA0EF307FACA
:1006C4000EF720FA01F94FEA1748CE4049EA030928
:1006D400B6FBF8FA4FEA194408FB1A661FFA87FCBE
:1006E40044EA06430AFB0CF29A4200FA0EF40AD9D1
:1006F400DB190AF1FF3180F087809A4240F284804E
:10070400AAF1020A3B449B1A1FFA89F9B3FBF8F1D8
:1007140008FB113349EA034301FB0CF69E4207D957
:10072400DB1901F1FF326BD29E4269D902393B4495
:100734009B1B41EA0A418EE7C1F1200E22FA0EF416
:100744008B40234320FA0EF706FA01F44FEA134CC8
:1007540026FA0EF63C43B6FBFCF9270C0CFB196693
:100764001FFA83F847EA064609FB08F7B74202FA7C
:1007740001F200FA01FA08D9F61809F1FF3041D262
:10078400B7423FD9A9F102091E44F61BA0B2B6FB39
:10079400FCF40CFB146640EA064704FB08F8B84571
:1007A40007D9FF1804F1FF3028D2B84526D9023CF6
:1007B4001F4444EA0940C8EB0707A0FB02894F45E0
:1007C40044464E4614D329D065B3BAEB040367EB11
:1007D400060707FA0EFECB40CF404EEA030385E836
:1007E40088000021BDE8F0871346F8E61046E0E6ED
:1007F400B8EB020469EB03060138E5E70446D8E7E1
:10080400114695E78146C0E78A467CE7023B3C44B3
:1008140048E708460AE702383E442FE7C245E7D3D3
:100824003E46D1E72946BDE8F08700BF704700BFC8
:1008340008B54FF48071034802F052FD322000F0F5
:10084400BBFCF6E70000024030B58BB000240594F1
:10085400069407940894099401941E4B1A6B42F071
:1008640004021A631A6B02F004020192019A0294C0
:100874001A6B42F080021A631A6B02F08002029231
:10088400029A03941A6B42F001021A631A6B02F083
:1008940001020392039A04941A6B42F002021A634F
:1008A4001B6B03F002030493049B0B4D01224FF4D2
:1008B4008071284602F00EFD4FF4807305930123E6
:1008C40006930794089405A9284602F035FC0BB05A
:1008D40030BD00BF003802400000024010B582B0B5
:1008E40000240094224B1A6B42F400121A631A6B10
:1008F40002F400120092009A01941A6B42F48002EE
:100904001A631B6B03F480030193019B2246214667
:10091400102002F0BBFE102002F0EAFE224621461F
:10092400112002F0B3FE112002F0E2FE224621461D
:10093400392002F0ABFE392002F0DAFE22462146CD
:100944003A2002F0A3FE3A2002F0D2FE22462146CB
:10095400452002F09BFE452002F0CAFE22462146B5
:10096400462002F093FE462002F0C2FE02B010BD03
:100974000038024008B50848084B03604FF4E133DF
:10098400436000238360C36003610C22426183617E
:10099400C36102F083F808BD641600200010014012
:1009A40008B50848084B03604FF4E1334360002363
:1009B4008360C36003610C2242618361C36102F0FE
:1009C4006DF808BDE41600200044004008B508484E
:1009D400084B03604FF4E133436000238360C3603A
:1009E40003610C2242618361C36102F057F808BDC0
:1009F400A41600200014014008B500F0B7FB08BDA0
:100A040030B595B03022002108A8FFF737FD002447
:100A14000394049405940694079401941B4B1A6C54
:100A240042F080521A641B6C03F080530193019BC3
:100A34000294174A136823F4404343F400431360B9
:100A4400136803F440430293029B012308934FF479
:100A54008033099302250E954FF480030F930423EA
:100A64001093542211921295139308A802F048F897
:100A74000F230393049505944FF48053069307942E
:100A8400294603A802F082FA15B030BD00380240AE
:100A94000070004000B58BB002F074FEFFF7B0FFA9
:100AA400FFF7D2FEFFF71AFFFFF764FFFFF778FFA7
:100AB400FFF78CFF02F0A6FE2422002101A8FFF715
:100AC400DDFC4FF40073069300F012FB01AA002131
:100AD400024801F069FD00F02BFBFEE73508000831
:100AE400704700BF704700BFFEE700BFFEE700BFCE
:100AF400FEE700BFFEE700BF704700BF08B502482D
:100B040002F0C6FC08BD00BF2414002008B502484A
:100B140002F0BEFC08BD00BF0416002008B5024860
:100B240002F0B6FC08BD00BF8414002008B50248DA
:100B340002F0AEFC08BD00BFA415002008B50248B1
:100B440002F0A6FC08BD00BF4415002008B5024809
:100B540002F09EFC08BD00BFE414002082B0002116
:100B640000910B4B5A6C42F480425A645A6C02F462
:100B740080420092009A01911A6C42F080521A64E9
:100B84001B6C03F080530193019B02B0704700BFBC
:100B94000038024030B58DB0044600230793089313
:100BA40009930A930B930368934A93425FD10025F8
:100BB4000195924B5A6C42F010025A645A6C02F03E
:100BC40010020192019A02951A6B42F001021A6313
:100BD4001B6B03F001030293029B4FF4C063079362
:100BE400022308930123099303230A9307230B93F6
:100BF40007A9834802F0A0FA8248834B03604FF0B0
:100C0400006343608560C5604FF4806303614561A0
:100C14008561C5610562456202F0D2FB08B1FFF748
:100C24005FFF784B63639C637848794B03604FF0B4
:100C340000634360402383600023C3604FF48062F9
:100C4400026143618361C3610362436202F0B8FBE2
:100C540008B1FFF745FF6D4B23639C6300221146E7
:100C6400252002F013FD252002F042FDC2E0694A6E
:100C740093425ED100250395604B1A6C42F4003216
:100C84001A641A6C02F400320392039A04951A6BE4
:100C940042F001021A631B6B03F001030493049BEB
:100CA4000C230793022308930123099303230A9334
:100CB40007230B9307A9524802F03EFA5648574BB4
:100CC40003604FF0006343608560C5604FF4806348
:100CD400036145618561C5610562456202F070FB8F
:100CE40008B1FFF7FDFE4C4B63639C634C484D4BCE
:100CF40003604FF000634360402383600023C360BC
:100D04004FF48062026143618361C36103624362A1
:100D140002F056FB08B1FFF7E3FE414B23639C63EB
:100D240000221146262002F0B1FC262002F0E0FC4D
:100D340060E03D4A93425DD1002505952F4B5A6CE6
:100D440042F020025A645A6C02F020020592059A7D
:100D540006951A6B42F004021A631B6B03F004033A
:100D64000693069BC0230793022308930123099348
:100D740003230A9308230B9307A92C4802F0DCF9F8
:100D84002B482C4B03604FF0206343608560C560A3
:100D94004FF48063036145618561C5610562456205
:100DA40002F00EFB08B1FFF79BFE214B63639C63CB
:100DB4002148224B03604FF020634360402383604B
:100DC4000023C3604FF48062026143618361C361A5
:100DD4000362436202F0F4FA08B1FFF781FE164B96
:100DE40023639C6300221146472002F04FFC4720F6
:100DF40002F07EFC0DB030BD00100140003802400E
:100E040000000240A415002040640240E4140020C5
:100E1400B86402400044004024140020886002406A
:100E240004160020A06002400014014000080240A3
:100E3400841400202864024044150020A064024069
:100E4400FEE700BFFEE700BF704700BF70B56B4B05
:100E54001B7A012B03D100F0E1F9002070BD33B1FE
:100E64004FF0FF3000F0D6F94FF0FF3070BD644B07
:100E74005B6D472B06D86FF00A0000F0CBF94FF0FA
:100E8400FF3070BD5E4BDD680DB11E8A36B94FF080
:100E9400FF3000F0BFF94FF0FF3070BD574C9C227B
:100EA400002104F10800FFF7E9FAE565A4F85460AD
:100EB400534B9A682264DC6A196B204600F0FCF9F3
:100EC40010B14E4BC3F880404D4B5C699969204684
:100ED40000F0F2F910B1494B5C6703E0474BD3F8DB
:100EE40080205A67464BDC69196A204600F0E4F911
:100EF40010B1424B9C6703E0404BD3F880209A67C3
:100F04003F4B5C6A996A204600F0D6F910B13B4B1E
:100F1400DC6703E0394BD3F88020DA67384B5C6B2D
:100F24004CB1E368A2682168204600F061FA10B170
:100F3400324BC3F88440324B9C6B4CB1E368A268DB
:100F44002168204600F054FA10B12C4BC3F88840B5
:100F54002B4BDC6B4CB1E368A2682168204600F09F
:100F640047FA10B1254BC3F88C40254B1C6C4CB18F
:100F7400E368A2682168204600F03AFA10B11F4BDA
:100F8400C3F890401E4B5C6C4CB1E368A2682168C6
:100F9400204600F02DFA10B1184BC3F89440184BBA
:100FA4009C6C4CB1E368A2682168204600F020FAEA
:100FB40010B1124BC3F89840114BDC6C4CB1E36890
:100FC400A2682168204600F013FA10B10B4BC3F855
:100FD4009C400B4B1C6D4CB1E368A2682168204611
:100FE40000F006FA10B1054BC3F8A0400122034BF0
:100FF4001A7200F013F9002070BD00BF0000002039
:101004004C39000810B5314B1B7A012B06D06FF018
:10101400060000F0FFF84FF0FF3010BD01F098FA21
:1010240030B94FF0FF3000F0F5F84FF0FF3010BD4D
:10103400274AFF2382F8223092F8223063F0FF031C
:10104400DB43B3FA83F3C3F12003D268C2F3022271
:10105400934200D8531CFE2202FA03F3DBB21C4A6B
:10106400D3771C491C4B586801F03EFB30B14FF05C
:10107400FF3000F0CFF84FF0FF3010BD01F074FBEB
:10108400124C206101F054FB04F11C0000F0D0FF6D
:1010940030B94FF0FF3000F0BDF84FF0FF3010BD15
:1010A40001F06CF80C4B1B6813F0010F03D0022302
:1010B40083F3148802E0032383F314880222034B8E
:1010C4001A7200F0AFF8002010BD00BF000000202D
:1010D40000ED00E0E10200084C39000810B5034CB3
:1010E400E06800F0A1F8E06810BD00BF0000002037
:1010F40008B5FFF7A9FE00F08FF8EFF3058353B9A5
:10110400EFF310831BB9EFF3118313B902E001234A
:1011140000E0012333B16FF0050000F07BF86FF0BD
:10112400050008BDDFF804C000DF08BD510E00084B
:1011340008B500F075F8EFF3058353B9EFF31083A6
:101144001BB9EFF3118313B902E0012300E001237B
:1011540033B16FF0050000F05DF86FF0050008BDD5
:10116400DFF804C000DF08BD0910000808B5EFF37C
:10117400058353B9EFF310831BB9EFF3118313B94C
:1011840002E0012300E0012313B1FFF7A7FF08BD2C
:10119400DFF804C000DF08BDE110000848B108B55D
:1011A4000146132001F06CF908B900F059F8002049
:1011B40008BD0020704700BF10B5044600F04EF88B
:1011C400EFF3058353B9EFF310831BB9EFF31183E6
:1011D40013B902E0012300E001233BB16FF00501E4
:1011E400002000F023F86FF0050010BD2046DFF862
:1011F40008C000DF10BD00BFA1110008704700BF88
:10120400704700BF704700BF704700BF704700BF02
:10121400704700BF704700BF704700BF704700BFF2
:10122400704700BF704700BF704700BF704700BFE2
:10123400704700BF704700BF704700BF704700BFD2
:10124400704700BF704700BF704700BF704700BFC2
:10125400704700BF704700BF704700BF704700BFB2
:10126400704700BF704700BF704700BF704700BFA2
:10127400704700BF704700BF704700BF704700BF92
:10128400704700BF704700BF704700BF704700BF82
:10129400704700BF704700BF704700BF704700BF72
:1012A400704700BF704700BF704700BF704700BF62
:1012B400704700BF704700BF38B5034638B110F01F
:1012C400070F04D111F0070F01D1172905D8002207
:1012D4001846FFF793FF002038BD016010205860C6
:1012E400A1F108041A199A6000221A519C686060DE
:1012F400DA6001221846FFF781FF012038BD00BFE4
:10130400F8B5074618B111B132F0030305D0002334
:101314003846FFF775FF0020F8BD01F10F0626F0EF
:10132400070600F108031D689E46EC1A586820F071
:101334000300201A864209D928682B460028F2D1D6
:1013440000233846FFF75CFF0020F8BD7D68354474
:101354007D603868083838444468A54200D945603F
:10136400586820B916435E600EF108040BE020F0C3
:1013740003050EEB05001C684EF805401643466055
:10138400186000F1080423463846FFF739FF204669
:10139400F8BD00BF38B5054600B129B9002228467A
:1013A400FFF730FF002038BDA1F1080400F1080365
:1013B400002008E01A68184622B92846FFF722FFE1
:1013C400002038BD1346A342F4D15A6822F0030426
:1013D4006A68121B6A6010B900225A6001E01B6837
:1013E400036001222846FFF70DFF012038BD00BF2E
:1013F400E8B1F8B50C4616461D460746C9B1D2B148
:10140400DBB1396000234360BA60C560456102FB0B
:10141400015303612B46FFF7F7FE02E0AB192B6083
:101424001D46013CFAD100232B600120F8BD0020A9
:1014340070470020F8BD0020F8BD0020F8BD00BFB3
:1014440038B528B900210846FFF7E0FE002038BD72
:10145400024600F1140353E8004F14B9BFF32F8F71
:1014640004E0216843E8001000B1F4E73CB1131D27
:1014740053E8001F481C43E8000505B1F8E721467E
:101484001046FFF7C3FE204638BD00BF38B50346FB
:1014940028B1C2688A4202D80269914207D36FF028
:1014A40003021846FFF7B4FE6FF0030038BD00F1E5
:1014B400140210680860BFF35F8F52E8000F0C68D5
:1014C4008442F6D142E8001505B1F2E71A1D52E84C
:1014D400000F441E42E8004505B1F8E70022184613
:1014E400FFF796FE002038BD30B4036B1BB913E040
:1014F4001D465B6800E000251BB1DC78CA78944285
:10150400F6D34B608D600BB1996000E0C1620DB100
:10151400696006E0016304E000234B608B60C162F4
:101524000163283050E8003F5A1C40E8002101B113
:10153400F8E730BC704700BF10B400F1280353E84B
:10154400002F12B9BFF32F8F04E0511E43E800149B
:1015540004B1F4E77AB1C06A0AE0831C0121D3E83C
:101564004F2FC3E8441F04B1F9E7D3B223B1806815
:101574000028F2D100E000205DF8044B704700BF62
:101584004B6813B18A689A6001E08B68C3628B6808
:1015940013B14A685A6070474B680363704700BFD1
:1015A4002DE9F84F10B10E46074639B96FF0030123
:1015B4000020FFF765FE0020BDE8F88FCD1C25F064
:1015C40003050C35B0FA80F3B5FA85F10B441F2BF3
:1015D40007D86FF003010020FFF752FE0020BDE89A
:1015E400F88F05FB00FABAB3D2F800909468D2F8E9
:1015F400108053696CB114F0030F02D1D268332AFE
:1016040011D86FF008010020FFF73AFE0020BDE872
:10161400F88FD2683AB16FF008010020FFF730FE6E
:101624000020BDE8F88FB8F1000F0CD018F0030FBC
:1016340001D19A4514D96FF009010020FFF720FE6B
:101644000020BDE8F88F5BB16FF009010020FFF7BF
:1016540017FE0020BDE8F88F4FF00009C8464C463D
:10166400A4B9324BD3F8A00028B1FFF7E9FE044631
:101674004FF0010B0CE0012234212C4BD3F88000F5
:10168400FFF73EFE04464FF0010B01E04FF0000B64
:1016940034B3B8F1000F23D100225146234BD86F45
:1016A400FFF72EFE804698B91BF0010F15D01F4B93
:1016B400D3F8A00020B12146FFF7E8FE00240DE096
:1016C40021461A4BD3F88000FFF764FE002405E09E
:1016D40052460021FEF7D2FE00E000244BF0020B3C
:1016E400E4B10823237084F802B0C4F80490002302
:1016F400A3606662A362E362236343462A463946D3
:1017040004F10C00FFF774FE094A084B1A6761687C
:101714002046FFF7B9FD2046BDE8F88F6FF00401BD
:101724000020FFF7ADFD2046BDE8F88F0000002043
:1017340039170008F8B504468378002B3AD0C568F9
:1017440001462846FFF71CFF0023237005F10C0611
:1017540021463046FFF79AFEAB68002B5ED05B78DB
:10176400932B5BD13046FFF76BFE0446002855D01F
:10177400284600F05DFC06460022114600F03EFDBE
:10178400304600F077FC074686686A6A314604F101
:101794000C00FEF7D9FD072323700023A3703B7BC5
:1017A400E37021462846FFF79FFE31462846FFF79F
:1017B40075FDF8BD85684168AB6843B35B78832BDE
:1017C40025D12846FFF76AFD284600F031FC06467D
:1017D4000022114600F012FD304600F04BFC074693
:1017E40086686A6A04F10C013046FEF7ADFDFB68B9
:1017F4000BB1E2781A7031462846FFF759FD0023F1
:101804002370214605F10C00FFF740FEF8BD284681
:10181400FFF744FD21462846FFF766FEF8BD00BFEA
:101824002DE9F041044630B10D4690461E4603783A
:10183400082B00D141B96FF003012046FFF720FDCA
:101844006FF00300BDE8F08183680BB35B78832BF2
:101854001ED1FFF723FD204600F0EAFB06460122D5
:10186400002100F0CBFC304600F004FC07468668FB
:10187400626A29463046FEF767FDFB680BB183F8C0
:10188400008031462046FFF713FD0020BDE8F081BB
:1018940004F10C00FFF7D4FD0746A8B1626A29469B
:1018A4000C30FEF751FD07233B700026BE7087F80D
:1018B400038039462046FFF717FE29462046FFF7E6
:1018C400EDFC3046BDE8F081F6B1324629462046AB
:1018D400FFF7DEFC3146932000F0D2FD68B10E4BD9
:1018E4005969204600F08EFBEFF309839D60C3F82D
:1018F4000C806FF00100BDE8F0812046FFF7CAFCC0
:101904006FF00100BDE8F08129462046FFF7C8FCCE
:101914006FF00200BDE8F081000000202DE9F041E5
:10192400044630B10E46174698460378082B00D17A
:1019340041B96FF003012046FFF7A2FC6FF00300EA
:10194400BDE8F081FFF7F8FD0546002849D00146BF
:101954002046FFF715FE626A05F10C013046FEF7DA
:10196400F3FC0FB1EB783B7031462046FFF7A0FC47
:1019740000232B7004F10C0629463046FFF786FD40
:10198400A368002B56D05B78932B56D13046FFF7D3
:1019940057FD0646002853D0204600F049FB054673
:1019A4000122002100F02AFC284600F063FB804657
:1019B4008768626A394606F10C00FEF7C5FC072306
:1019C40033700025B57098F80C30F370314620461A
:1019D400FFF78AFD39462046FFF760FC2846BDE83C
:1019E400F081B8F1000F1DD0424631462046FFF782
:1019F4005BFC4146832000F043FD60B1124B596902
:101A0400204600F0FFFAEFF309839E60DF606FF079
:101A14000100BDE8F0812046FFF748FC6FF00100AB
:101A2400BDE8F08131462046FFF744FC6FF0020028
:101A3400BDE8F0810020BDE8F0810020BDE8F08120
:101A44000020BDE8F08100BF0000002070B506460C
:101A54000D461446FFF716FCEFF3058353B9EFF375
:101A640010831BB9EFF3118313B902E0012300E0E3
:101A7400012333B16FF005010020FFF701FC0020C2
:101A840070BD304629462246DFF804C000DF70BD31
:101A9400A51500082DE9F04104460F4690461D4661
:101AA400FFF7F4FBEFF3058353B9EFF310831BB98E
:101AB400EFF3118313B902E0012300E001239BB388
:101AC40024B12378082B01D107B145B16FF003018C
:101AD4002046FFF7D5FB6FF00300BDE8F08104F169
:101AE4000C00FFF7ADFC0546B0B1626A39460C3014
:101AF400FEF72AFC07232B700026AE7085F80380BE
:101B04006F60AC60284600F05FF939462046FFF765
:101B1400C3FB3046BDE8F08139462046FFF7C0FBE1
:101B24006FF00200BDE8F0812046394642462B465C
:101B3400DFF808C000DFBDE8F08100BF2518000809
:101B4400F8B504460D4616461F46FFF7ABFBEFF308
:101B5400058353B9EFF310831BB9EFF3118313B962
:101B640002E0012300E0012363B324B12378082BAE
:101B740001D105B13FB16FF003012046FFF780FBAF
:101B84006FF00300F8BD2046FFF7D6FC074690B17E
:101B9400626A00F10C012846FEF7D6FB0EB1FB7811
:101BA4003370FC60384600F00FF929462046FFF7F1
:101BB4007FFB0020F8BD29462046FFF77BFB6FF032
:101BC4000200F8BD2046294632463B46DFF804C0F1
:101BD40000DFF8BD2119000870B504461FE06569EF
:101BE400E37813F0080F19D0002121762046FFF77F
:101BF40041FBA36893B1204600F01AFA064600227E
:101C0400114600F0FBFAE660F36A63610023236186
:101C1400F462012121762046FFF72AFB2C46002C92
:101C2400DDD170BD30B4134BB3F854205633D3E830
:101C34005F1F8A4202D8BFF32F8F04E04C1CC3E815
:101C4400554F05B1F3E78BB29A4210D90A4BD3E84A
:101C54005F1F4C1CA24200D80024C3E8554F05B1B5
:101C6400F5E78AB25B6843F82200012000E0002017
:101C740030BC7047000000205800002010B4134B03
:101C8400B3F854105633D3E85F2F12B9BFF32F8F34
:101C940004E0501EC3E8540F04B1F4E793B283B1D7
:101CA4000B4BD3E85F2F501C814200D80020C3E8BF
:101CB400540F04B1F5E792B2D3F8023053F822007E
:101CC40000E000205DF8044B704700BF00000020D6
:101CD4005A00002038B500F041FD204BDA6801328B
:101CE400DA601B6D03B1984700F0D0F9002000F0D2
:101CF40053FA1A4B1B6C002B2ED0184A916B926925
:101D0400914203D015498A63CB6338BD134BDB6B17
:101D140013B1013B114AD363104BDB6BE3B90F4B97
:101D24001B7A022B18D10D4B5C6AACB194F92020BC
:101D340091F920309A420FD1204600F085F9074DE1
:101D4400A86B00F08DF9A86BFFF77CFA204600F031
:101D540015FAAC632B6CEB6338BD00BF00000020A8
:101D640008B5FFF78BFF48B30378013B062BF8D87F
:101D740001A151F823F000BF991D0008671D000858
:101D8400A11D0008671D0008A91D0008B11D000859
:101D9400B91D00080B4B1B6E9847E2E7094B5B6EBD
:101DA4009847DEE7074B9B6E9847DAE7054BDB6EF7
:101DB4009847D6E7034B1B6F9847D2E7002000F003
:101DC400EBF908BD0000002010B50446FFF72AFF18
:101DD40068B1094B5B7A13F0FF0F04D14FF08052C6
:101DE400064B5A6010BD0122034B9A7210BD214666
:101DF4000220FFF727F810BD0000002000ED00E0EE
:101E040012F0020F27D110B412F0010F12D000F11A
:101E1400280353E8000F00EA01028A4203D0BFF30B
:101E24002F8F002005E020EA010243E8002404B1DA
:101E3400EFE71FE000F1280353E8000F084203D145
:101E4400BFF32F8F002005E020EA010243E80024BD
:101E540004B1F1E70EE0806A12F0010202D031EA27
:101E6400000303D142B9014202D0704700207047F9
:101E7400002070475DF8044B704700BF00E0C06865
:101E840010B10378012BFAD0704700BFB1F1FF3FC6
:101E940010D1164B1B6B002201E01A461B69002B64
:101EA400FBD1C161426103610AB1106170470F4BFC
:101EB4001863704710B40D4BDB6A002402E0891AE2
:101EC4001C461B6913B1DA699142F8D2C1614461BD
:101ED40003610CB1206101E0044AD0621BB1DA69EC
:101EE400511AD96158615DF8044B70470000002015
:101EF400C369B3F1FF3F13D143691BB9154A126B90
:101F0400904225D1026902B15361436923B1026948
:101F14001A6100234361704702690E4B1A637047CC
:101F240042691AB90B4AD26A904211D102692AB1A4
:101F3400D1690B44D361036942695A61436923B18E
:101F440002691A610023436170470269014BDA6236
:101F5400704700BF0000002010B50123437090F9C2
:101F6400204009494B6A1C3101E019469B681BB1AA
:101F740093F920209442F8DBC1608360886003B148
:101F8400D860FFF75FF910BD0000002010B50446CB
:101F9400002343700370837813F0020F0ED013F004
:101FA400100F06D0016B0F4BD3F88400FFF76EFAC5
:101FB40004E0016B0B4B586FFFF7ECF9A37813F0B7
:101FC400010F0DD0074BD3F8880018B12146FFF755
:101FD4005DFA10BD2146034BD3F88000FFF7DAF910
:101FE40010BD00BF0000002008B5FFF72FF9DFF88F
:101FF40010C000DF4FF0FF310020FFF717F9FEE7B4
:10200400D124000899B110B40C4691F920108368CA
:1020140001E018469B681BB193F920209142F8DD3A
:10202400E060A360846003B1DC605DF8044B70473A
:10203400836833B19A6882609A6802B1D0600022E2
:10204400DA601846704700BFC3683BB182689A6083
:1020540083680BB1C268DA600023C360704700BFB5
:1020640008B50146012343700148FFF7CBFF08BDC3
:102074001C000020826B90F8223013F0100F01D165
:10208400602000E020201044704700BF10B5304BA2
:10209400DC6A002C5AD0E369013BE361002B55D183
:1020A4006378532B1ED006D8332B12D0432B13D076
:1020B400132B34D10AE0732B20D002D8632B17D012
:1020C4002DE0832B20D0932B24D028E0FFF7C8F8F1
:1020D40025E0FFF7BFF822E02046FFF7CFFEFFF729
:1020E400C3F81CE02046FFF7C9FEFFF7BFF816E06F
:1020F4002046FFF7C3FEFFF7BFF810E02046FFF7C6
:10210400BDFEFFF7BBF80AE02046FFF7B7FEFFF776
:10211400CDF804E02046FFF7B1FEFFF7BBF82046F8
:10212400FFF7A8FF01682046FFF78AF82046FFF76B
:102134008BFF2046FFF794FF246914B1E369002B59
:10214400AED00CB100236361014BDC6210BD00BF53
:102154000000002008B5074B596951B18A6B0B6B1D
:102164009A4203D91A68044B9A4202D00120FEF71E
:1021740069FE08BD00000020A52E5AE210B50446F1
:1021840002234370034B9861FFF7E4FF2046FFF7F7
:102194005BF810BD0000002038B5174B1A7A5D6952
:1021A400A0B95C6A022A25D125B31CB394F9202076
:1021B40095F920309A421DDD2046FFF745FF284659
:1021C400FFF7CAFE2046FFF7D9FF38BD0446022AAE
:1021D4000DD165B190F9202095F920309A4206DDA1
:1021E4002846FFF7B9FE2046FFF7C8FF38BD204652
:1021F400FFF736FF38BD00BF0000002070B504466D
:102204000E461546FFF71CF82046FFF733FF06601D
:102214002046FFF76DFE1DB12046FFF7BDFF70BDE0
:102224002046FFF71DFF70BD38B54378332B12D11C
:10223400044690F82320416AFFF7E2FD054650B1B9
:10224400002201462046FFF7D9FF2A4694F82310BE
:10225400606AFFF701F838BD2DE9F04F83B00191B2
:1022640028B96FF00301FEF7E1FF0020FAE0804691
:10227400AAB3D2F80090D2F804B0946816695569EC
:10228400976964B114F0030F02D1D368432B0FD8BC
:102294006FF008010020FEF7C9FF0020E2E0D368D8
:1022A40033B16FF008010020FEF7C0FF0020D9E031
:1022B40056B116F0070F00D135B96FF00A010020AE
:1022C400FEF7B4FF0020CDE08FB17B1E372B0FD972
:1022D4006FF00B010020FEF7A9FF0020C2E04FF0D1
:1022E400000918274D464E46CB464C4600E01827B9
:1022F4005DB115F0070F01D1472D06D86FF00A0123
:102304000020FEF793FF0020ACE0A4B9574BD3F8AC
:10231400880028B1FFF794F804464FF0010A0CE056
:1023240001224421514BD3F88000FEF7E9FF044613
:102334004FF0010A01E04FF0000AACB3A6BBA5B907
:102344004B4B5D6D494BD3F8840030B1FFF778F8FF
:10235400064688B14AF0100A0EE000222946434B93
:10236400586FFEF7CDFF064606E0002229463F4B94
:10237400586FFEF7C5FF0646A6B91AF0010F10D034
:102384003A4BD3F8880020B12146FFF77FF80024A8
:1023940008E02146354BD3F88000FEF7FBFF00240C
:1023A40000E000244AF0020A002C4FD001232370DD
:1023B400637084F802A084F803B0C4F80490002386
:1023C400A360E36023616361A361E3617FB284F886
:1023D400207084F82170FD2284F8222084F82330B0
:1023E4006362A362E36226636563AB19403BA36344
:1023F400C4F83C801F4B33601D4B1B6813F0040F63
:1024040009D0AD08113D04E04FF0CC3346F8043F49
:10241400013D002DF8D1A16B002303E0002241F817
:10242400232001330D2BF9D1134B4B63C1F83880B2
:102434004FF08073CB63019B0B62104A0B4B1A66FF
:102444006268E16B2046FEF7F5FE04E06FF00401DC
:102454000020FEF7EBFE24B12046FFF79DFE204648
:1024640000E0204603B0BDE8F08F00BF000000206C
:102474004C390008A52E5AE2ED1F00082D22000851
:10248400104B1B7A022B16D170B50E4B5E69A6B1A8
:102494005B6AA3B10C4605463046FEF7CFFE757065
:1024A40021463046FFF7F2FC0748FFF7C1FDFFF76E
:1024B40065FE012070BD00207047002070BD002023
:1024C40070BD00BF000000201C00002038B51E4B6A
:1024D4005C69002C36D01B7A022B33D11A4B5B6A11
:1024E40083B3E06AFFF778FBA06930B1002211469C
:1024F400FFF784FEA069FEF79FFEEFF30983A36351
:10250400124D2846FFF794FDFFF738FE002345F8E7
:10251400083CE37813F0010F01D0A3691BB12046F6
:10252400FFF734FD0BE0042363700023E360064BE4
:102534005A6BA2605B6B03B1DC60034B5C632046A7
:10254400FEF786FE38BD00BF000000201C000020FE
:1025540010B5114B9B6A53B9104B9A6D002110486A
:10256400FFF77AFE0C4B986218B1012402E00124B3
:1025740000E00024094B5B6E63B1074B9B6C4BB9C5
:10258400064BDA6D00210748FFF766FE024B98649C
:1025940000B90024204610BD000000204C3900087A
:1025A400450E00089D26000870B506460D461446E3
:1025B400FEF73EFEEFF3058353B9EFF310831BB927
:1025C400EFF3118313B902E0012300E0012333B1D7
:1025D4006FF005010020FEF729FE002070BD304693
:1025E40029462246DFF804C000DF70BD5D220008E2
:1025F40010B40D4B5B6C002402E0891A1C46DB68A6
:1026040013B11A699142F8D201618460C3601BB1AD
:102614001A69511A196198600CB1E06001E0024B2B
:1026240058645DF8044B704700000020C3680BB188
:1026340082689A60C268014B5A64704700000020A7
:1026440010B5144B5C6C1CB32369013B23611BE084
:102654002046FFF7EBFF00231A4604F118010D484A
:10266400C06CFFF717FA18B121460320FEF7EAFB06
:10267400E378012B04D161692046FFF7B9FF01E03B
:1026840001236370034B5C6C14B12369002BDFD00E
:1026940010BD00BF0000002000B583B00F4B1A6EC0
:1026A4000821586EFFF7D2F90D4BD86498B10D4A42
:1026B4001A654FF0FF33002269460948C06CFFF7E2
:1026C4003FFA0028F5D101990098FEF7CBFD019857
:1026D400009B9847EDE703B05DF804FB4C39000814
:1026E40000000020452600080346A8B10D4A1068E2
:1026F400B0FBF3F00138B0F1807F10D2FF220A4B17
:1027040083F82320A3F54F6306221A605860002043
:102714009860064B187070474FF0FF3070474FF0C9
:10272400FF307047AC00002000ED00E020140020D2
:10273400074B1B7833B10022054B1A704FF08062AF
:10274400044B5A60044A136843F001031360704752
:102754002014002000ED00E010E000E0014B1B68B5
:10276400704700BF10E000E04FF0FF30704700BF3B
:102774002DE9F843044601680B6923F44052C36809
:1027840013430B6181680369194343691943C3699E
:1027940019430068C26822F4164323F00C030B4368
:1027A400C36021684B6923F44072A36913434B61EE
:1027B400E369B3F5004F40F0BB80276803F1804321
:1027C40003F510439F4203D003F580639F4257D122
:1027D40000F0A2FC00EB800000EB800065686D0057
:1027E400B0FBF5F5AB4EA6FB05356D092D0100F0E8
:1027F40093FC00EB800000EB800063685B00B0FB9F
:10280400F3F900F089FC00EB800000EB80006368C2
:102814005B00B0FBF3F3A6FB03235B094FF06408F2
:1028240008FB1393DB003233A6FB03235B095B0035
:1028340003F4F8731D4400F06FFC00EB800000EB20
:10284400800063685B00B0FBF3F900F065FC00EB0B
:10285400800000EB800063685B00B0FBF3F3A6FB31
:1028640003235B0908FB13984FEAC80808F13208F0
:10287400A6FB0836C6F342163544BD60BDE8F883AE
:1028840000F03AFC00EB800000EB800065686D000E
:10289400B0FBF5F57F4EA6FB05356D092D0100F063
:1028A4002BFC00EB800000EB800063685B00B0FB56
:1028B400F3F900F021FC00EB800000EB800063687A
:1028C4005B00B0FBF3F3A6FB03235B094FF0640842
:1028D40008FB1393DB003233A6FB03235B095B0085
:1028E40003F4F8731D4400F007FC00EB800000EBD8
:1028F400800063685B00B0FBF3F900F0FDFB00EBC4
:10290400800000EB800063685B00B0FBF3F3A6FB80
:1029140003235B0908FB13984FEAC80808F132083F
:10292400A6FB0836C6F342163544BD60BDE8F883FD
:102934002668594B9E4203D003F580639E4254D1CE
:1029440000F0EAFB00EB800000EB80006568AD005E
:10295400B0FBF5F54F4FA7FB05356D092D0100F0D0
:10296400DBFB00EB800000EB800063689B00B0FBA6
:10297400F3F800F0D1FB00EB800000EB800063680B
:102984009B00B0FBF3F3A7FB03235B094FF064093F
:1029940009FB13831B013233A7FB03235B0903F0F9
:1029A400F0031D4400F0B8FB00EB800000EB800056
:1029B40063689B00B0FBF3F800F0AEFB00EB800013
:1029C40000EB800063689B00B0FBF3F3A7FB0323D9
:1029D4005B0909FB13831B013233A7FB0323C3F3F6
:1029E40043131D44B560BDE8F88300F085FB00EB9C
:1029F400800000EB80006568AD00B0FBF5F5254F65
:102A0400A7FB05356D092D0100F076FB00EB800076
:102A140000EB800063689B00B0FBF3F800F06CFBF4
:102A240000EB800000EB800063689B00B0FBF3F3D5
:102A3400A7FB03235B094FF0640909FB13831B0104
:102A44003233A7FB03235B0903F0F0031D4400F0BA
:102A540053FB00EB800000EB800063689B00B0FB3D
:102A6400F3F800F049FB00EB800000EB80006368A2
:102A74009B00B0FBF3F3A7FB03235B0909FB138360
:102A84001B013233A7FB0323C3F343131D44B56077
:102A9400BDE8F8831F85EB510010014068B310B501
:102AA400044690F8393013F0FF0F04D1002380F866
:102AB4003830FEF76FF8242384F839302268D3685D
:102AC40023F40053D3602046FFF752FE22681369B3
:102AD40023F4904313612268536923F02A0353615A
:102AE4002268D36843F40053D3600020E0632023BA
:102AF40084F8393084F83A3010BD0120704700BFA3
:102B0400002800F0B58170B582B00446036813F064
:102B1400010F5AD0A04B9B6803F00C03042B0AD07E
:102B24009D4B9B6803F00C03082B0DD19A4B5B68FB
:102B340013F4800F08D0984B1B6813F4003F44D063
:102B44006368002B41D195E16368B3F5803F05D1FB
:102B5400914A136843F48033136015E0B3F5A02F52
:102B640009D18D4B1A6842F480221A601A6842F423
:102B740080321A6008E0884B1A6822F480321A60A6
:102B84001A6822F480221A6063687BB1FDF734FF6F
:102B9400054605E0FDF730FF401B642800F26C8118
:102BA4007D4B1B6813F4003FF4D00EE0FDF724FFC7
:102BB400054605E0FDF720FF401B642800F25E8116
:102BC400754B1B6813F4003FF4D1236813F0020F14
:102BD40050D0714B9B6813F00C0F0AD06E4B9B685E
:102BE40003F00C03082B16D16B4B5B6813F4800FB6
:102BF40011D1694B1B6813F0020F03D0E368012B5A
:102C040040F03E81644A136823F0F803216943EAE3
:102C1400C10313602EE0E368D3B101225F4B1A6055
:102C2400FDF7EAFE054605E0FDF7E6FE401B022837
:102C340000F22881584B1B6813F0020FF4D0564A57
:102C4400136823F0F803216943EAC103136011E018
:102C54000022524B1A60FDF7CFFE054605E0FDF752
:102C6400CBFE401B022800F20F814B4B1B6813F074
:102C7400020FF4D1236813F0080F26D0636993B1CF
:102C84000122474B1A60FDF7B7FE054605E0FDF744
:102C9400B3FE401B022800F2F9803F4B5B6F13F038
:102CA400020FF4D011E000223D4B1A60FDF7A4FEA0
:102CB400054605E0FDF7A0FE401B022800F2E8806F
:102CC400354B5B6F13F0020FF4D1236813F0040F3C
:102CD4007CD0314B1B6C13F0805F0DD1002301932A
:102CE4002D4B1A6C42F080521A641B6C03F0805313
:102CF4000193019B012500E000252A4B1B6813F476
:102D0400807F13D1274A136843F480731360FDF75F
:102D140073FE064605E0FDF76FFE801B022800F2F5
:102D2400B980204B1B6813F4807FF4D0A368012B77
:102D340005D1194A136F43F00103136714E0052BFF
:102D440009D1154B1A6F42F004021A671A6F42F048
:102D540001021A6708E0104B1A6F22F001021A6789
:102D64001A6F22F004021A67A3688BB1FDF744FEC0
:102D7400064607E0FDF740FE801B41F28833984287
:102D840000F28A80044B1B6F13F0020FF2D017E09D
:102D9400FDF732FE06460EE00038024000004742CE
:102DA400800E474200700040FDF726FE801B41F272
:102DB4008833984272D8404B1B6F13F0020FF3D143
:102DC40025B13D4A136C23F080531364A369002B8F
:102DD40066D0394A926802F00C02082A62D0022BAB
:102DE40033D10022354B1A60FDF706FE054604E098
:102DF400FDF702FE401B022856D82F4B1B6813F028
:102E0400007FF5D1E269236A1343626A43EA8213BD
:102E1400A26A5208013A43EA0243E26A43EA0263BD
:102E2400254A53600122254B1A60FDF7E5FD04464F
:102E340004E0FDF7E1FD001B022837D81E4B1B6898
:102E440013F0007FF5D0002033E000221B4B1A6002
:102E5400FDF7D2FD044604E0FDF7CEFD001B022879
:102E640026D8154B1B6813F0007FF5D1002020E015
:102E74000120704701201CE003201AE0032018E021
:102E8400012016E0032014E0032012E0032010E0E8
:102E940003200EE003200CE003200AE0032008E0F6
:102EA400002006E0012004E0032002E0032000E00B
:102EB400032002B070BD00BF0038024060004742EA
:102EC40038B52F4B9B6803F00C03042B55D0082B0B
:102ED40001D02C4838BD2A4B5A6802F03F025B6887
:102EE40013F4800F20D0264B5B68C3F38813DC00F7
:102EF4000025690141EAD4616001041B61EB050509
:102F0400A90141EA9461A001001B61EB0501C0180D
:102F140041F100014B0243EAD053440220461946D2
:102F24000023FDF7F9FA1FE0154B5B68C3F3881320
:102F3400DC000025690141EAD4616001041B61EBF6
:102F44000505A90141EA9461A001001B61EB05019B
:102F5400C01841F100018B0243EA905384022046D9
:102F640019460023FDF7D8FA054B5B68C3F3014308
:102F740001335B00B0FBF3F038BD034838BD00BF3C
:102F8400003802400024F40000127A00002800F007
:102F9400978070B50446514B1B6803F00F038B42B6
:102FA40008D2CBB24D4A1370136803F00F03994251
:102FB40040F08880236813F0020F17D013F0040F39
:102FC40004D0474A936843F4E0539360236813F0B2
:102FD400080F04D0424A936843F460439360404826
:102FE400836823F0F002A368134383600D462368CB
:102FF40013F0010F2FD06268012A05D1384B1B68EA
:1030040013F4003F0ED15FE0931E012B05D8344B1F
:103014001B6813F0007F05D158E0314B1B6813F097
:10302400020F55D02E498B6823F0030313438B60A2
:10303400FDF7E2FC064606E0FDF7DEFC801B41F2EC
:103044008833984246D8264B9B6803F00C03626889
:10305400B3EB820FF0D1214B1B6803F00F039D42A9
:1030640007D2EAB21D4B1A701B6803F00F039D428E
:1030740032D1236813F0040F06D019498B6823F466
:10308400E052E36813438B60236813F0080F07D002
:10309400134A936823F46043216943EAC1039360AC
:1030A400FFF70EFF0E4B9B68C3F303130D4AD35C6B
:1030B400D8400D4B1860002000F03EFB002070BD8E
:1030C40001207047012070BD012070BD012070BD3A
:1030D400012070BD032070BD012070BD003C024082
:1030E400003802402C3A0008AC000020014B18685C
:1030F400704700BFAC00002008B5FFF7F7FF044B92
:103104009B68C3F38223034AD35CD84008BD00BF45
:10311400003802403C3A000808B5FFF7E7FF044BCB
:103124009B68C3F34233034AD35CD84008BD00BF55
:10313400003802403C3A0008F0B583B00024BBE0FC
:103144000123A3400A6803EA0205AB4240F0B380BE
:103154004A68022A01D0122A10D1E608083650F82B
:1031640026C004F0070297000F22BA402CEA020E90
:103174000A69BA404EEA020240F826200268670053
:103184000326BE40F64302EA060E4A6802F0030232
:10319400BA404EEA020202604A6802F1FF3EBEF102
:1031A400010F03D9112A01D0122A10D1826806EA2C
:1031B400020ECA68BA404EEA02028260426822EAFB
:1031C40003034A68C2F30012A2401A434260C36870
:1031D4001E408B68BB403343C3604B6813F0805F71
:1031E40069D000230193374B5A6C42F480425A64ED
:1031F4005B6C03F480430193019BA608B21C324B21
:1032040053F8222004F003039B000F279F4022EA77
:1032140007072E4A904211D002F5806290420FD0E7
:1032240002F5806290420DD002F5806290420BD08C
:1032340002F58062904209D1042208E0002206E0EF
:10324400012204E0022202E0032200E0072202FA43
:1032540003F33B4302361C4A42F826301C4B1A68DF
:10326400EB4302EA03064F6817F4803F01D045EAB6
:103274000206174A1660526803EA02064F6817F4FA
:10328400003F01D045EA0206114A5660926803EAFB
:1032940002064F6817F4801F01D045EA02060C4A63
:1032A4009660D26813404E6816F4001F01D045EAB8
:1032B4000203074AD36001340F2C7FF641AF03B0F9
:1032C400F0BD00BF00380240003801400000024059
:1032D400003C01400AB18161704709048161704773
:1032E400436931EA030302D10904816170478161B2
:1032F400704700BF0268D3B2103B0B49A1FB031314
:103304001B090A49C95CC165032B06D922F47F72E3
:1033140022F003020432826504E022F47F7222F078
:1033240003028265806D7047ABAAAAAA243A0008FA
:10333400836A826982B9012B08D00BB1022B2ED18A
:10334400C36A13F0807F2CD100207047C36AB3F1A5
:10335400C07F28D000207047B2F5005F13D1032B43
:1033640003D8DFE803F02204220A00207047C36A6E
:1033740013F0807F1BD100207047C36AB3F1C07F74
:1033840017D000207047022B15D9032B01D0002041
:103394007047C36A13F0807F0FD10020704700206C
:1033A40070470120704701207047012070470120B9
:1033B400704701207047012070470120704700BF0B
:1033C40070B50446FDF718FB002C5CD005460023BD
:1033D40084F83430022384F835302268136823F0EB
:1033E400010313600AE0FDF707FB401B052805D91C
:1033F40020236365032084F8350070BD23681A68B0
:1034040012F0010FEFD11A68204810406168A268D9
:103414001143E26811432269114362691143A269AD
:103424001143E2690A43216A114340EA0102616AD5
:10343400042903D1E06A216B01430A431A60266818
:10344400756925F00705636A1D43042B0DD1A36A32
:103454001D43E36A4BB12046FFF76AFF28B14023BE
:103464006365012084F8350070BD75612046FFF75F
:1034740041FFE26D3F239340836000206065012398
:1034840084F8353070BD012070BD00BF3F8010F05E
:10349400F0B583B0044600230193714B1B68714D52
:1034A400A5FB0335AD0A876D3E68C26D08239340C2
:1034B4001E4210D003681A6812F0040F0BD01A6869
:1034C40022F004021A60C26D08239340BB60436D6E
:1034D40043F001034365E26D012393401E4209D08A
:1034E4002268526912F0800F04D0BB60636D43F010
:1034F40002036365E26D042393401E4209D02268EF
:10350400126812F0020F04D0BB60636D43F0040331
:103514006365E26D102393401E4224D02268126832
:1035240012F0080F1FD0BB6023681A6812F4802FB2
:103534000DD01B6813F4002F04D1236C9BB12046DB
:10354400984710E0A36C73B1204698470BE01A68C3
:1035540012F4807F03D11A6822F008021A60236CE7
:103564000BB120469847E26D202393401E4252D06F
:103574002268126812F0100F4DD0BB6094F83530F9
:10358400DBB2052B22D12268136823F016031360E3
:103594002268536923F080035361236C0BB9A36C35
:1035A40023B12268136823F008031360E26D3F23FC
:1035B4009340BB60002384F83430012384F8353011
:1035C400236D002B49D02046984746E023681A68AB
:1035D40012F4802F0DD01B6813F4002F04D1636CF8
:1035E400CBB12046984716E0E36BA3B12046984739
:1035F40011E01A6812F4807F09D11A6822F01002CF
:103604001A60002384F83430012384F83530E36BE6
:103614000BB120469847636DFBB1636D13F0010F46
:1036240017D0052384F835302268136823F001038A
:103634001360019B013301939D4204D323681B68EB
:1036440013F0010FF5D1002384F83430012384F8FA
:103654003530E36C0BB12046984703B0F0BD00BF92
:10366400AC000020B5814E1B074AD36823F4E06305
:103674001B041B0C000200F4E060184340F0BF6020
:1036840040F40030D060704700ED00E030B4164BD9
:10369400DB68C3F30223C3F10704042C28BF04240A
:1036A4001D1D062D01D9DD1E00E00025012303FAAE
:1036B40004F4013C2140A940AB40013B1A400A43B9
:1036C400002808DB1201D2B200F1604000F561402D
:1036D40080F8002305E000F00F001201D2B2034B82
:1036E4001A5430BC704700BF00ED00E014ED00E058
:1036F400002808DB420900F01F00012303FA00F050
:10370400014B43F82200704700E100E00138B0F1BA
:10371400807F0AD2064B5860F021064A82F82310B3
:103724000020986007221A6070470120704700BF8C
:1037340010E000E000ED00E010B504460E4B1878F0
:103744004FF47A73B3FBF0F30C4A1068B0FBF3F058
:10375400FFF7DCFF58B90F2C0BD8002221464FF09D
:10376400FF30FFF793FF064B1C60002010BD0120C3
:1037740010BD012010BD00BFA8000020AC00002037
:10378400A400002008B50B4B1A6842F400721A60BA
:103794001A6842F480621A601A6842F480721A60ED
:1037A4000320FFF761FF0020FFF7C6FFFDF7D6F9FE
:1037B400002008BD003C02400F49D1F8883043F492
:1037C4007003C1F888300D4B1A6842F001021A6088
:1037D400002098601A6822F0847222F480321A6001
:1037E400074A5A601A6822F480221A60D8604FF09F
:1037F40000638B60704700BF00ED00E000380240BA
:1038040010300024224B9B6803F00C03042B07D0D8
:10381400082B09D0002B2DD11E4A1F4B1A602CE017
:103824001E4A1D4B1A6028E0194B5A685B6803F066
:103834003F0312F4800F09D0184AB2FBF3F2144B81
:103844005B68C3F3881303FB02F208E0114AB2FB7E
:10385400F3F30F4A5168C1F3881101FB03F20C4BD7
:103864005B68C3F3014301335B00B2FBF3F30A4A21
:10387400136002E0074A084B1A60054B9B68C3F3C8
:103884000313074AD15C044A1368CB4013607047A2
:10389400003802400024F400AC00002000127A003A
:1038A4002C3A0008DFF834D0002103E00C4B5B58BD
:1038B400435004310B480C4B42189A42F6D30B4A3E
:1038C40002E0002342F8043B094B9A42F9D3FFF784
:1038D40073FFFCF711FDFDF7DDF8704700000120D0
:1038E400543A000800000020B0000020B00000207E
:1038F40024170020FEE70000F8B500BFF8BC08BCA0
:103904009E467047F8B500BFF8BC08BC9E46704799
:1039140000000000000000000000000000000000A3
:103924000000000000000000000000000000000093
:103934000000000000000000000000000000000083
:10394400000000000000000003000000E803000085
:1039540005000000D000002010000000000000005E
:103964000000000000000000000000000000000053
:103974000000000010010020001000000000000002
:103984000000000000000000000000000000000033
:103994000000000000000000000000000001000022
:1039A400B4390008DC390008003A000804000000BB
:1039B4000000000000000000DC13002044000000B0
:1039C4009812002000010000010000000000000027
:1039D40000000000000000000000000000000000E3
:1039E40098130020440000009811002000010000FA
:1039F400280000000000000000000000000000009B
:103A040000000000101100203400000044110020C8
:103A1400500000005254582056352E342E300000E9
:103A2400000610160006101600000000000000003A
:103A34000102030406070809000000000102030450
:083A4400F4C7FF7F0100000040
:043A4C00010200086B
:043A5000D901000890
:103A5400183A0008C08CFB020000000000000000BF
:103A64000000000000000000000000000000000052
:103A74000000000000000000000000000000000042
:103A84000000000000000000000000000000000032
:103A94000000000000000000000000000000000022
:103AA4000000000000000000000000000000000012
:103AB4000000000000000000000000000000000002
:103AC40000000000000000000000000000000000F2
:103AD40000000000000000000000000000000000E2
:103AE40000000000000000000000000000000000D2
:103AF4000000000010000000010000000024F40099
:04000005080038A90E
:00000001FF
