:020000040800F2
:10000000A0350020A9010008F33700086B3500086F
:10001000F1370008011B0008414300080000000000
:10002000000000000000000000000000CD010008FA
:10003000851D000800000000650200087502000828
:10004000C3010008C3010008C3010008C301000880
:10005000C3010008C3010008C3010008C301000870
:10006000C3010008C3010008C3010008C301000860
:10007000C3010008C3010008C3010008C301000850
:10008000991C0008A51C0008C3010008000000001E
:10009000000000000000000000000000C301000894
:1000A000C3010008C3010008C3010008C301000820
:1000B000C3010008C3010008C3010008C301000810
:1000C000C3010008C3010008C3010008F537000898
:1000D000C3010008ED4200080943000800000000C9
:1000E000C3010008C3010008C301000800000000AC
:1000F000000000000000000000000000C301000834
:1001000000000000C3010008C3010008C30100088B
:1001100000000000000000000000000000000000DF
:10012000C3010008B11C0008BD1C0008C301000881
:10013000C3010008000000000000000000000000F3
:10014000000000000000000000000000C3010008E3
:10015000C3010008C91C0008D51C0008254300087D
:10016000C3010008C30100080000000000000000F7
:10017000000000000000000000000000000000007F
:1001800000000000C30100080000000000000000A3
:10019000C3010008DFF80CD000F0EEF8004800477B
:1001A00085470008A03500200648804706480047DC
:1001B000FEE7FEE7FEE7FEE7FEE7FEE7FEE7FEE717
:1001C000FEE7FEE7F9390008950100081EF0040F6C
:1001D0000CBFEFF30880EFF30980816911F8021C6E
:1001E00091BB01B590E80F10E047BDE800508CE8E6
:1001F0000300244B93E80600914208BF704741B9C1
:100200001EF0100F10D12049086820F0010008608E
:100210000AE02CE9F00F1EF0100F08BF2CED108A39
:10022000C1F838C081F822E01A6092F82210906B71
:1002300061F0FF0E1EF0100F08BFB0EC108AB0E89E
:10024000F00F80F309887047104A13689942FAD872
:1002500001B552F821C00FC8E047BDE80050CCF806
:100260000000704701B500F01BFCBDE80140EFF352
:10027000098CBEE701B500F08BFEBDE80140EFF34D
:10028000098CB6E77414002034EF00E0AC4A000893
:100290002DE9F05F0546002092469B4688460646BB
:1002A000814640241BE0284641464746224600F04E
:1002B00053F853465A46C01A914110D31146184676
:1002C000224600F03AF82D1A67EB01084F46224605
:1002D0000120002100F031F817EB00094E41201EEB
:1002E000A4F10104DFDC484631462A464346BDE816
:1002F000F09F40EA01039B0703D009E008C9121FE1
:1003000008C0042AFAD203E011F8013B00F8013BCF
:10031000521EF9D27047D2B201E000F8012B491EFB
:10032000FBD270470022F6E710B513460A46044692
:100330001946FFF7F0FF204610BD202A04DB203AC3
:1003400000FA02F1002070479140C2F1200320FA28
:1003500003F3194390407047202A04DB203A21FA26
:1003600002F00021704721FA02F3D040C2F12002CE
:100370009140084319467047064C074D06E0E06877
:1003800040F0010394E8070098471034AC42F6D3DC
:10039000FFF704FFA84B0008C84B000870B58C1885
:1003A00010F8015B15F0070301D110F8013B2A1189
:1003B00006D110F8012B03E010F8016B01F8016B76
:1003C0005B1EF9D12B0705D40023521E0DD401F872
:1003D000013BFAE710F8013BCB1A921C03E013F83B
:1003E000015B01F8015B521EF9D5A142D8D3002070
:1003F00070BD10B500F1280151E8002F12B9BFF30C
:100400002F8F04E0531E41E8003404B1F4E78AB1B1
:100410002C3001210BE0821CD2E84F3FC2E8441F80
:1004200004B1F9E713F0FF0F08BF10BD08300068F2
:100430000028F0D1002010BD84465CF8303F93B115
:1004400010B54FF0000E05E0CB78D4789C420FD267
:10045000536896461A46002BF6D10022C1E9012EB8
:1004600000F12C0207E00022C1E90122C1620AE08A
:10047000C1E9012E0832BEF1000F116018BF0EF164
:10048000040CBDE81040CCF80010283050E8001FE4
:100490004A1C40E8002303B1F8E77047D1E9012383
:1004A000002A0EBFC36293608B68191D002B08BF22
:1004B00000F130010A60704701480068704700BFD2
:1004C00010E000E007480178012905D10021017002
:1004D00005484FF0806101600448016841F0010166
:1004E000016070479A31002004ED00E010E000E068
:1004F0004FF0FF307047000040B10B490968B1FB75
:10050000F0F0411E0020B0EB116F02D04FF0FF3031
:100510007047064AFF231370054A06231360516093
:1005200004499060087070475C13002023ED00E0E0
:1005300010E000E09A31002010B5930712D400F1CA
:100540002803D00718D153E8000F084203D1BFF3A6
:100550002F8F002005E020EA010243E8002404B1C7
:10056000F1E710BD806AD20700EA010315D1002B24
:1005700018BF10BD002010BD53E8000F00EA0102B3
:100580008A4203D0BFF32F8F002005E020EA01024A
:1005900043E8002404B1EFE710BD8B4218BF0020F0
:1005A00010BD000080B5124A4FF0000E02F1440C5D
:1005B000624606E01A6991420BD3891A03F10C02D4
:1005C0009E461368002BF5D10022C0E902E20161CA
:1005D00006E0C0E902E3016198601A69511A1961E5
:1005E000BEF1000F18BF0EF10C0CCCF8000080BD5E
:1005F00060140020EFF3058129B9EFF3108111B9E0
:10060000EFF3118111B16FF005007047DFF804C0FE
:1006100000DF7047D1110008EFF3058028B9EFF330
:10062000108010B9EFF3118010B10348C068704713
:10063000DFF808C000DF704760140020E5110008F3
:1006400080B504F0FDF8EFF3058028B9EFF31080D2
:1006500010B9EFF3118010B16FF0050080BDDFF825
:1006600008C000DF80BD00BFF1110008EFF3058076
:1006700028B9EFF3108010B9EFF3118010B16FF0CB
:1006800005007047DFF804C000DF704769130008F9
:10069000EFF3058129B9EFF3108111B9EFF311815F
:1006A00011B16FF005007047DFF804C000DF70473C
:1006B000F5130008F8B50546EFF3058014460E461D
:1006C00028B9EFF3108010B9EFF31180F0B16FF09B
:1006D00003000DB303BBFEB1297808291CD12846BD
:1006E000FFF787FE074670B16A6A07F10C013046D2
:1006F000FFF7FFFD0CB1F87820703846FD6000F080
:1007000017FA002008E06FF0020005E0DFF80CC0E7
:1007100028463146224600DF01B0F0BD65140008CE
:10072000EFF305832BB9EFF3108313B9EFF31183C4
:100730000BB100207047DFF808C000DF704700BF32
:100740004D1500082DE9F0410646EFF3058090466F
:100750000D4628B9EFF3108010B9EFF3118020B3E4
:100760006FF00307F6B1EBB9E5B13078082819D17D
:1007700006F10C0000F0A8F8044688B1726A04F192
:100780000C002946FFF7B5FD072000272070204602
:10079000A77084F80380C4E9015600F0C9F901E0AC
:1007A0006FF002073846BDE8F081DFF810C0304630
:1007B0002946424600DFBDE8F08100BF81160008EF
:1007C000B0B50023D0B3C9B3032A37D886460F315A
:1007D0005EF8084F21F0070CDEF804102346A4EB66
:1007E0000E0421F00305641B644505D21C689E4677
:1007F000002CF1D1002321E0D0E9004363444360A1
:10080000204450F8044C9C423EBF08384360DEF858
:10081000041069B1DEF8000021F0030141F80E0078
:100820004CEA020071444860CEF800108E4603E0A6
:100830004CEA0200CEF804000EF108031846B0BDE1
:1008400080B5002218B311B300F10803A1F1080C20
:100850004FF0000E1A46634505D013689646002BEC
:10086000F8D1002213E051F8043C4268BEF1000FB9
:1008700023F00303A2EB030242604FF0010219BF11
:10088000DCF80000CEF80000002041F8040C10460F
:1008900080BD08B1420702D00022104670470022F6
:1008A0001829FAD311F00703F7D11022C0E900127A
:1008B0000144A1F108038360002341F8083C8168EA
:1008C0004A600122C360E8E710B50146B0B101F10A
:1008D000140252E8000F10B9BFF32F8F04E0036831
:1008E00042E8003404B1F4E740B1043151E8002F8C
:1008F000531C41E8003404B1F8E710BD002010BDDE
:10090000F8B1C2688A421CD802698A4219D9B0B5C6
:1009100000F11402043013680B60BFF35F8F52E8DC
:10092000003F0C689C42F6D142E8001505B1F2E7A1
:1009300050E8001F4A1E40E8002303B1F8E70020FA
:10094000B0BD6FF00300704784460020BCF1000F7B
:1009500018BF002921D002B3FBB180B54FF0000EC3
:1009600002FB0130CCE9001ECCE90223CCE90403F0
:10097000481EC1F1010E194600FB02FC04E0881874
:100980000EF1010E08600146BEF1000FF7D1002004
:1009900043F80C000120BDE880407047F8B50446DC
:1009A000807880B3E56821462846FFF777FD002070
:1009B00005F10C06214620703046FFF7A1FFA8681C
:1009C00000B3407893281DD13046FFF77DFF0446E1
:1009D000C0B1284600F00AFA00210022064600278E
:1009E00000F0BCFA304600F04BFA81686A6A0646AD
:1009F00004F10C00FFF77DFC07202070A770F06861
:100A0000E07025E0F8BDA568A86808B340788328A1
:100A10001ED1284600F0EAF90021002206460027F0
:100A200000F09CFA304600F02BFA064680686A6AAD
:100A300004F10C01FFF75DFCF06808B1E17801708A
:100A4000277005F10C002146BDE8F840FFF758BFBC
:100A500028462146BDE8F840FFF7EEBC2DE9F041FD
:100A6000044600274FF0010815E0E8786C6900079C
:100A700011D52F76A86870B1284600F0B7F900218B
:100A80000022064600F06AFAEE60F06AC5E90470DA
:100A9000F56285F818802546002CE6D1BDE8F08186
:100AA000F8B5224C4FF6FF7604F1560504F15A07CB
:100AB00027E0D7E85F1F4A1C904200D80022C7E811
:100AC000532F03B1F5E788B2E16D51F820000028FB
:100AD00026D001780139062913D8DFE801F0041285
:100AE00007120A0D1000216E88470AE0616E8847E0
:100AF00007E0A16E884704E0E16E884701E0216FBE
:100B00008847B4F85400D5E85F1F11B9BFF32F8FA1
:100B100004E04A1EC5E8532F03B1F4E73142C8D1BF
:100B20000020BDE8F84000F005B900BF60140020C7
:100B300070B501461948B0F8542000F15603D3E8C7
:100B40005F4FA24202D8BFF32F8F04E0651CC3E8B9
:100B5000565F06B1F3E7A3B293421AD200F15803ED
:100B6000D3E85F4F651CAA4200D80025C3E8565F52
:100B700006B1F5E7C36DA2B243F82210417A00290D
:100B800019BF0121817206484FF0805108BF0160F2
:100B900070BD0220BDE8704003F050BE601400201C
:100BA00004ED00E010B58168C1B100F10C01D1E89D
:100BB0005F2F12B9BFF32F8F04E0531EC1E8543FDB
:100BC00004B1F4E74FF6FF710A4207D000F00EF9C6
:100BD00000210022BDE8104000F0C0B910BD0000A7
:100BE000012141700B4990F920C001F11C0211460E
:100BF00092684AB192F920306345F8DCC0E90221DD
:100C0000886002F10C0103E00022C0E902210831F2
:100C1000086070476014002010B54A1C11D0204AAB
:100C2000002402F12C0C624603E0891A03F1100241
:100C30001C461368E3B1DA699142F6D24FF0010E17
:100C400019E01749002301F1300421461A460B68C8
:100C500003F11001002BF9D14FF0FF31002AC161DF
:100C60004FF00001C0E9041217D002F1100414E0A3
:100C700000234FF0000E002CC161C0E9043418BFFE
:100C800004F1100CBEF1000FCCF8000008BF10BD3D
:100C9000DA6903F11404511AD961206010BD00BF54
:100CA00060140020C36941695A1C11D0DFF848C0A4
:100CB00021B9DCF82C20824218BF7047026922B1AA
:100CC0005161D1691944D161416939B10A610EE0BC
:100CD000094A31B9136B834203D07047CCF82C20FA
:100CE000704703690BB15961416919B10B6100216A
:100CF000416170471363704760140020B0B50C4D1C
:100D0000EC6A1CB1E0690138E06100D0B0BD20465A
:100D100000F08DF8204600F0A9F824692CB1E069B4
:100D20000028F4D00020606100E00024EC62B0BD37
:100D300060140020B0B505461548002D4469017ABD
:100D40000DD0022906D12CB194F9200095F920107C
:100D5000814213DC2846BDE8B04000F087B8022984
:100D600014D19CB1456A8DB194F9200095F92010F9
:100D70008142D8BFB0BD284600F059F82046FFF7A1
:100D80002FFF2846BDE8B04000F0C4B8B0BD00BF9A
:100D90006014002010B5044600202080A07810F0D8
:100DA000020F0DD0C00605D40F48216B406FFFF72E
:100DB00047FD05E00C48216BD0F88400FFF7A0FD4B
:100DC000A078C00708BF10BD0749D1F8880020B13E
:100DD0002146BDE81040FFF793BDD1F880002146C1
:100DE000BDE81040FFF72CBD60140020014680686C
:100DF00030B18268002A8A6000D0D1600021C160D1
:100E0000704799B191F920C00246806840B190F9CD
:100E100020306345F8DAC1E902020C30916004E049
:100E20000020C1E9020202F1080001607047C168B8
:100E300031B182688A60826802B1D1600021C160EC
:100E4000704710B504464078332818BF10BD94F899
:100E50002320616A2046FFF76FFB014628B1204638
:100E60000022BDE8104000F079B810BD0146012015
:100E7000487002481C30FFF7C4BF00BF6014002058
:100E8000816B90F8220000F0100080F0180001EB58
:100E9000800070470748416939B1086B8A6B82420C
:100EA00004D90068044A904200D17047012003F041
:100EB000C5BC00BF60140020A52E5AE2B0B5114D8C
:100EC000A86A08B101240AE00F480021826D0F488A
:100ED00000F028FD04460028A86218BF01240A4833
:100EE000416E61B1A96C51B9C26D0948002100F091
:100EF00019FD0028A86418BF01202040B0BD20467D
:100F0000B0BD00BF60140020344B00083F4800080B
:100F1000011000080221417001498861FFF7BABF42
:100F20006014002010B50C4C8446207A02281CBFA7
:100F3000002010BD636900206BB1626A5AB1184687
:100F400083F801C0FFF768FE04F11C00FFF74EFFB5
:100F5000FFF7E0FF012010BD60140020B0B504468B
:100F60001546806B94F8222002F0100282F01802DD
:100F700040F822102046FFF795FE20461DB1BDE83F
:100F8000B040FFF7D7BEBDE8B040FFF76FBF00002D
:100F9000B0B5FFF791FA194DE968286D01310028C5
:100FA000E96000D08047FFF7A9FE0020FFF7C2FEEE
:100FB000296C11B3AA69A86B90421CBFC5E90E2128
:100FC000B0BDE96B11B10139E96316D1297A022963
:100FD00013D16C6A8CB190F8200094F820108142F3
:100FE0000BD12046FFF723FFA86BFFF73FFF2046FA
:100FF000FFF790FF286CC5E90E40B0BD60140020DB
:10100000BCB50D480821D0E91820FFF789FB0B4D2E
:101010000028E8640ED00A496C4629652146002262
:101020004FF0FF33FFF746FB10B9DDE900108847AA
:10103000E86CF3E7BCBD00BF344B0008601400202F
:101040004510000870B5144D6C6C1CB32069012666
:10105000013820611CE02069E0B9E06808B1A168AE
:101060008160686404F1180100220023E86CFFF736
:1010700069FB18B10320214603F0E0FBE07801286A
:1010800004D161692046FFF78DFA00E066706C6C50
:10109000002CE0D170BD00BF60140020EFF305828A
:1010A0002AB9EFF3108212B9EFF31182DAB16FF0BF
:1010B0000302B0B1A9B90178052912D10C30D0E8EA
:1010C0005F1F11B9BFF32F8F04E04A1EC0E8532FF2
:1010D00003B1F4E74FF6FF700022014208BF6FF042
:1010E000020210467047DFF808C000DF704700BFFB
:1010F00041170008EFF305832BB9EFF3108313B901
:10110000EFF311830BB100207047DFF808C000DF58
:10111000704700BF9D170008EFF3058129B9EFF371
:10112000108111B9EFF3118109B3B0B5E0B10178C5
:10113000052919D1C18900F10C02D2E85F3F99421B
:1011400002D8BFF32F8F04E05C1CC2E8554F05B1F5
:10115000F3E7C28999B2914224BF6FF00200B0BD9B
:10116000FFF7E6FC0020B0BD6FF00300B0BDDFF874
:1011700008C000DF704700BF1D180008DFF804C07A
:1011800000DFFEE771180008EFF305832BB9EFF3DA
:10119000108313B9EFF3118313B16FF0050070479B
:1011A000DFF804C000DF7047D9180008EFF30583AB
:1011B0002BB9EFF3108313B9EFF311830BB10020B8
:1011C0007047DFF808C000DF704700BF251900082E
:1011D000014628B180B51320FFF7A4FEBDE880408A
:1011E000002070470148C068704700BF60140020AD
:1011F0002DE9F843DFF8648198F80800012800F031
:10120000A580002840F0A480554F4FF0FF30796D45
:101210004829C0F09F80FC68002C00F09B803D8A2C
:10122000002D00F0978008F108009C21FFF77AF864
:10123000A8F85450C8F85C40B868D7E90B41C8F822
:1012400040002046FFF725FB08B1C8F88040D7E9E9
:101250000541DFF81091D7E907562046C847D8F86E
:1012600080100028284618BF2146C8F8741031465F
:10127000C847D8F88010002818BF2946C8F8781049
:10128000D7E909412046C847D8F88010002818BF80
:1012900021467C6BC8F87C1044B12168D4E9022354
:1012A0002046FFF751FB08B1C8F88440BC6B44B13D
:1012B0002168D4E902232046FFF746FB08B1C8F8AD
:1012C0008840FC6B44B12168D4E902232046FFF733
:1012D0003BFB08B1C8F88C403C6C44B12168D4E9B0
:1012E00002232046FFF730FB08B1C8F890407C6C21
:1012F00044B12168D4E902232046FFF725FB08B159
:10130000C8F89440BC6C44B12168D4E9022320465B
:10131000FFF71AFB08B1C8F89840FC6C44B121688B
:10132000D4E902232046FFF70FFB08B1C8F89C4020
:101330003C6D44B12168D4E902232046FFF704FB49
:1013400008B1C8F8A040012088F80800002001E09A
:101350004FF0FF3001B0BDE8F08300BF6014002003
:10136000344B000893080008B0B51E4C207A0128C1
:101370001CD1FFF7A3FDC8B11B48FF211B4D817590
:10138000817D026881F0FF01C2F30222B1FA81F18E
:10139000C1F120018A4228BF511CFE2202FA01F14C
:1013A000C17468681249FFF7A7F810B14FF0FF3019
:1013B000B0BDFFF79DF82061FFF784F804F11C0031
:1013C000FFF714FD0028F1D0FFF7A4FD2878C0072F
:1013D0000CBF0320022080F314880220207200201A
:1013E000B0BD00BF601400200CED00E0344B0008DD
:1013F0007502000810B5044640B32078082825D1AE
:10140000A06868B12046FFF7F1FC6FF002010022EE
:10141000FFF7A4FDA0680028F4D10020FFF78AFCA4
:1014200000202070A07810F0020F05D00C48A169B0
:10143000C06FFFF705FAA078C0070FD00849D1F8B0
:10144000A00030B12146FFF75BFA07E06FF0030020
:1014500010BDD1F880002146FFF7F2F9002010BD41
:10146000601400202DE9F843994690460F46044643
:101470006FF00305002862D0002F60D02078082884
:101480005DD12046FEF7B5FF064600283FD0204636
:101490003146FFF703F8626A06F10C013846FEF7A1
:1014A00028FFB8F1000F04F10C074FF0000531469A
:1014B0001CBFF07888F8000035703846FFF720FA36
:1014C000A068E0B34078932835D13846FFF7FCF99F
:1014D0000646002598B32046FFF788FC002101222C
:1014E0000746FFF73BFD3846FFF7CAFC8168626A92
:1014F000074606F10C00FEF7FCFE0720314630706F
:10150000B570F868F0702046FEF796FF17E0B9F165
:10151000000F12D083204946FFF704FD40B10A486E
:1015200041692046FFF76DFCEFF30980C0E90278BE
:101530006FF0010503E0002501E06FF00205284689
:1015400001B0BDE8F08300BF601400202DE9F84F22
:101550000D460446002760B15DB105F10F01B4FAF4
:1015600084F021F00306B6FA86F10844202804D25C
:101570000027384601B0BDE8F08F06FB04F872B1D1
:10158000D2F808A01368D2E90490BAF1000F11D084
:101590005FEA8A71ECD1D1683429E9D30DE00023E8
:1015A0004FF0000934490093D1F8A00078B1FFF75B
:1015B0008BF912E0D1680029DAD1B9F1000F2FD0F0
:1015C00000274045D5D319F003002BD0D1E7D1F83F
:1015D000800034210122FFF7F3F882464FF0010B1F
:1015E000B9F1000F10D1BAF1000F0DD0224F4146D2
:1015F0000022F86FFFF7E4F8814638B148464146CB
:10160000FEF790FE57461AE057461AE0BBF1000F6E
:1016100014D0D7F8A00060B15146FFF771F90DE082
:101620000028A5D1BAF1000FBCD000934FF0000BF9
:10163000D6E7D7F880005146FFF702F900274BF0B4
:10164000020B002F3FF495AF0820009987F802B0F5
:1016500032464B4638700020C7E90110C7E90950EF
:10166000C7E90B0007F10C002146FFF76DF90248AE
:10167000024901677DE700BF601400209D09000852
:101680002DE9F843994690460E4605466FF003074C
:1016900000284ED0002E4CD02878082849D1A868C0
:1016A000D0B14078832817D12846FFF79FFB00214F
:1016B000012204460027FFF751FC2046FFF7E0FB1C
:1016C000044680686A6A3146FEF713FEE06880B31C
:1016D00080F8008000272CE005F10C00FFF7F4F8FB
:1016E000044680B16A6A04F10C003146FEF701FE3F
:1016F00007200027214620702846A77084F8038021
:10170000FEF79AFE15E0B9F1000F10D0932049467C
:10171000FFF708FC40B1094841692846FFF771FB13
:10172000EFF30980C0E902686FF0010701E06FF094
:101730000207384601B0BDE8F08300BF6014002006
:10174000B0B5044610B3207805281FD104F10C0071
:10175000D0E85F2F12B9BFF32F8F04E0531EC0E80B
:10176000553F05B1F4E74FF6FF7002421CBF002061
:10177000B0BD71B16320FFF7D5FB20B106484169C8
:101780002046FFF73EFB6FF00100B0BD6FF0030095
:10179000B0BD6FF00200B0BD6014002070B504460B
:1017A00001384FF6FE730D460021984298BFA542BE
:1017B00001D9084670BD4AB19068166870B18107BA
:1017C0000FD1D2680021102AF3D314E0002611496A
:1017D000D1F8980038B1FFF777F80AE0D068002810
:1017E000F5D00021E5E7D1F8800010210122FEF7B5
:1017F000E7FF60B1012181700521074A01700021D6
:10180000C0E9016103498581C4818A6600E0002046
:101810000146CEE760140020A50B0008B0B560B10A
:101820000178052909D1816859B1FFF7DFFA002154
:1018300001220024FFF792FB01E06FF00304204631
:10184000B0BDC18900F10C02D2E85F3F994202D8D5
:10185000BFF32F8F04E05C1CC2E8554F05B1F3E7DE
:10186000C2896FF0020099B2914238BF0020B0BD2A
:10187000B0B5184D6C6964B3287A022829D1686A1A
:1018800038B3E06AFFF7EAF8A06918B10021002236
:10189000FFF764FBEFF30980A06305F11C00FFF77D
:1018A000A5FAFFF737FB00206861E078C00701D098
:1018B000A06920B12046BDE8B040FFF76BBA002018
:1018C000E06004206070686B0028A06000D0C460F5
:1018D0006C63B0BD60140020F8B50546104814468E
:1018E0000E46476997B1002D13DB3846294632462C
:1018F000FEF722FE90B97CB13320214687F82360A1
:101900007D62FFF70FFB6FF0010007E04FF0FF3043
:1019100004E06FF0030001E06FF0020001B0F0BDE1
:10192000601400202DE9FE4F804608B36AB102F131
:10193000100A9AE88006D2E900439568B5B1A80775
:1019400016D1D068442813D317E04FF0180A0023AB
:1019500000274FF000090024644A0293D2F888005F
:10196000CDE90014C8B1FEF7AFFF1CE0D06820B18C
:101970000026304603B0BDE8F08F37B10026B9F13C
:10198000000FF6D017F00700F3D1BAF1000F38D0EE
:10199000AAF101003728EBD835E0D2F880004421C5
:1019A0000122FEF70DFF05464FF0010B67B95DB14F
:1019B000B9F1000F0AD04D4849460022406FFEF7AA
:1019C000FFFE074680B911E02E463EE047484849F1
:1019D000D0F88400D1F854900028ECD0FEF774FFC2
:1019E000074618B14BF0100B2E462CE0BBF1000F50
:1019F0001CD03E49D1F88800E0B12946FEF780FFAF
:101A00001DE04FF0180AB9F1000F06D00026B9F119
:101A1000480FAED319F00700ABD1002D3FF49CAFB7
:101A2000CDE9001402934FF0000BBFE74FF0000B1D
:101A3000002707E0D1F880002946FEF701FF0027C4
:101A40004FF0010B00264BF0020B002E3FF491AF3C
:101A500040F2011086F802B0182130800298F07030
:101A60000198706006F10800FEF75CFC07EB0901C5
:101A7000FD2086F821A086F820A086F8220000200C
:101A8000403986F82F00C6F82B00C6F82700C6F8A4
:101A90002300C6E90C79C6E90E181649009D396085
:101AA0001349097849070AD511213A1D4FF0CC3363
:101AB000A1EB990101E008C201310029FBD1B16B12
:101AC000002202E041F8220001320D2AFAD10A4A2E
:101AD0004FF080700D62C1E90D28C86303480749C3
:101AE00001663046FFF726F943E700BF6014002087
:101AF000344B0008A52E5AE27D110008430E000861
:101B0000FEE7000010B5094A00210948FFF74EFB27
:101B1000064C241F206020B106A002F013FC2068B0
:101B200010BD07A002F00EFC002010BD64130020C1
:101B30005D1B0008496E6974202E2E2E00000000E7
:101B400043544C205468726561642063726561740B
:101B500065206661696C6564200D0A0002F0B8F8C2
:101B600001F004FD0AA002F0EDFB00F049F80A4D77
:101B70004FF480644FF4FA762146284600F09AFB31
:101B8000014606A002F0DEFB3046FEF733FDF3E728
:101B900073746172740D0A000004024077616B6512
:101BA000207570206F7574203A2025640D0A00009E
:101BB00038B500210422084600F034F8084C60686B
:101BC000C178009183784278017806A002F0BAFBD0
:101BD00061680020087048708870C870012038BDA6
:101BE00050140020646576696365204944203D20D7
:101BF0002578202578202578202578200D0A0000DA
:101C0000074806494FF4FA7401602031C0F8041007
:101C1000FFF7CEFF2046FEF7EDFCF9E75B31002031
:101C2000501400202DE9F843184D022451B140F022
:101C30004000CC09CBB225D043F08003C9096B70BA
:101C4000A9700024DFF848802855C4F103008618E5
:101C50004FF4805700223946404600F030FB4FF0E9
:101C6000FF3000900948B3B2203002192919094801
:101C700001F01EF801223946404600F020FB012009
:101C8000BDE8F883AB700124DCE700005831002088
:101C90000000024058150020014800F0D1B80000B3
:101CA00030170020014800F0CBB80000901700204A
:101CB000014800F0C5B80000F0170020014800F00E
:101CC000BFB8000070160020014800F0B9B800004D
:101CD00050180020014800F0B3B80000D0160020D2
:101CE00001681823CAB2103AB2FBF3F2054B6FF346
:101CF0000901032A9B5CC36500D9091D816508465B
:101D000070470000084A000810B5014600208B69A2
:101D10008A6A4FF0C07453B1B3F5005F15D072B149
:101D2000012A0CD0022A0AD0032A09D104E01AB1F0
:101D3000012A06D0022A03D1C96AC90100D50120AF
:101D400010BDC96AA142FAD010BD002AF7D0012AFD
:101D5000F2D0022AF3D0032AF3D010BD30B50468C4
:101D6000256825F480252560046863608368402B1E
:101D7000036803D099600068C26030BD9A60006853
:101D8000C16030BD704770472DE9F0410446876D52
:101D900000F09AFA064694F835000025022806D08D
:101DA0008020606584F834500120BDE8F08120680F
:101DB000016821F0160101602068416921F080016D
:101DC0004161206C08B9A06C20B12068016821F045
:101DD000080101602068016821F0010101600BE049
:101DE00000F072FA801B052806D92020606504F8EF
:101DF000345F03206070D8E720680068C007EFD127
:101E000094F85C103F208840B86004F8345F0120EB
:101E100060700020C9E790F83510022903D08021B6
:101E2000416501207047052180F835100068016880
:101E300021F00101016000207047406D70470000F3
:101E40002DE9F84304464FF00009CDF800906348AF
:101E50004FF41651A56D0068B0FBF1F72E6894F8A9
:101E60005C10082000FA01F131420FD021680A68A5
:101E700052070BD50A6822F004020A6094F85C103D
:101E80008840A860606D40F00100606594F85C10C7
:101E90004FF0010808FA01F0304208D02168496982
:101EA000090604D5A860606D40F00200606594F8F2
:101EB0005C1004208840304208D0216809688907F6
:101EC00004D5A860606D40F00400606594F85C1073
:101ED00010208840304218D021680968090714D5BD
:101EE000A86020680168490304D50068000308D58C
:101EF000A16C07E00168C90503D4016821F008015D
:101F00000160216C09B12046884794F85C102020BC
:101F10008840304231D021680968C9062DD5A860B3
:101F200094F8350005282068016806D0490347D594
:101F3000006800031DD4616C1CE021F016010160F3
:101F40002068416921F080014161206C08B9A06CD2
:101F500020B12068016821F00801016094F85C104C
:101F60003F208840A86084F8349084F83580216D43
:101F70001FE0E16B09B120468847606D00282BD037
:101F8000606DC00714D0052084F835002068016812
:101F900021F0010101600098401C0090B84203D874
:101FA00020680068C007F6D184F8349084F8358042
:101FB000E16C002910D001B02046BDE8F04308478D
:101FC0000168C905D5D4016821F01001016084F8C9
:101FD000349084F83580CCE7BDE8F8835C130020AA
:101FE0002DE9F041044600F06FF906465CB100258A
:101FF00084F83450022084F835002068016821F00C
:10200000010101600DE00120BDE8F08100F05CF904
:10201000801B052805D920206065032084F8350041
:10202000F2E720680068C007F0D1226811682048F4
:102030000140D4E901031843D4E90336334318437C
:1020400063691843A3691843E3691843236A184373
:102050000843616A042903D1D4E90B1319430843E7
:10206000106020684069666A20F0070130460E4320
:10207000012704280CD1A06A0643E06A40B120463B
:10208000FFF742FE20B14020606584F83570BAE762
:10209000206846612046FFF723FE94F85C203F212C
:1020A00091408160656584F835700020ACE70000E0
:1020B0003F8010F02DE9F0410446866D90F8340021
:1020C000002501280DD0012084F8340094F83570E3
:1020D0000020012F07D084F8340002252846BDE8EF
:1020E000F0810220FBE7022784F835706065204606
:1020F000FFF734FE94F85C103F208840B060206801
:10210000016841F0160101602068416941F08001D9
:102110004161206C20B12068016841F00801016034
:102120002068016841F001010160D7E72DE9F84F0F
:10213000DFF860B100224FF001084FF0030A4FF0C2
:102140000F090BF1040E00BF0B6808FA02F42340DC
:10215000A3426ED14D68022D01D0122D0ED1D508AB
:1021600000EB850CDCF820505607F70E09FA07F64D
:10217000B5430E69BE402E43CCF82060066855007A
:102180000F790AFA05FC07F0030726EA0C06AF40B0
:10219000374307604E68012E05D0022E03D0112E62
:1021A00001D0122E0ED18668CF6826EA0C06AF4009
:1021B000374387604668A6430C79C4F30014944003
:1021C00034434460C6688C6826EA0C06AC4034434D
:1021D000C4604C68E40056D52F4C256845F4804512
:1021E0002560246822F0030504F4804400942B4CFD
:1021F0002E19D6F8084895072F0F09FA07F5AC43B2
:10220000274DA84201D1002515E0264DA84201D155
:10221000012510E0244DA84201D102250BE0234DF9
:10222000A84201D1032506E0214DA84202D1042590
:1022300001E028E00725BD402543C6F80858DBF833
:1022400000405D464E689C43F60300D51C432C605D
:10225000DEF8004075464E689C43B60300D51C432B
:102260002C600C4D08352C684E689C43F60200D556
:102270001C432C60074D0C352C684E689C43B602FD
:1022800000D51C432C60521C102AFFF45DAFBDE842
:10229000F88F0000003C014044380240003001400B
:1022A000000002400004024000080240000C02400E
:1022B000001002400069084000D0012070470AB1B8
:1022C000816170470904FBE7FEF7A6B970B5040009
:1022D0001BD094F83D00002520B984F83C502046DE
:1022E00000F0AEF8242084F83D002068016821F059
:1022F0000101016000F002FA4D4A6168914201D883
:102300004C4900E04C49884201D2012070BD4B4944
:102310002368B0FBF1F15E6826F03F060E435E6075
:102320006368934206D94FF4967359434FF47A7316
:10233000B1FBF3F12368491C1E6A26F03F063143C6
:1023400019626168914210D84900401EB0FBF1F259
:10235000521CC2F30B02042A01D2042022E0B0FB7B
:10236000F1F0401CC0F30B001CE0A368F3B301EBD9
:10237000C10202EB0116421EB2FBF6F2521C42F4FD
:102380008042120549D093B301EBC10202EB011167
:10239000401EB0FBF1F0401CC0F30B0040F4804045
:1023A00040F400402168CA694CF6FF739A43104319
:1023B000C861D4E90701084321680A6822F0C00215
:1023C00010430860D4E9030101432068826848F2A1
:1023D000FF339A4311438160D4E905010843216822
:1023E000CA6822F0FF021043C86001E00EE016E068
:1023F0002068016841F0010101602564202084F813
:102400003D00256384F83E50002070BD01EB41067D
:10241000421EB2FBF6F2521CB3E70120C2E701EB09
:102420004101401EB0FBF1F0401CC0F30B00B7E7C8
:10243000A086010080841E0000093D0040420F007C
:1024400010B586B0044614216846FDF76BFF1349AA
:102450002068884220D11248016841F002010160E1
:102460000068694600F002000590C020009012202C
:102470000190012002900320039004200490094859
:10248000FFF754FE06481030016841F40011016066
:10249000006800F40010059006B010BD0054004024
:1024A00030380240000402400B4810B5016841F486
:1024B00000710160016841F480610160016841F4CC
:1024C00080710160032000F06FF8002000F006F832
:1024D00000F024F8002010BD003C024070B50D4D06
:1024E00004464FF47A712878B1FBF0F00A49096884
:1024F000B1FBF0F000F0CDFC48B9102C07D200225F
:102500002146501E00F030F800206C6070BD0120A4
:1025100070BD0000501300205C1300200A4808B56D
:10252000016841F480410160006800F4804000903F
:102530000548001F016841F080510160006800F00B
:102540008050009008BD000044380240002809DB9C
:1025500000F01F02012191404009800000F1E020BD
:10256000C0F8001170470000F0B40E4B1B680C4619
:10257000C3F30223C3F10705042D00D90425191D57
:10258000072901D2002300E0DB1E012606FA05F12F
:10259000491E214099409E40761E16403143F0BCB2
:1025A00001F0E0BE0CED00E0064900F0070208680B
:1025B0004FF6FF03184040EA0220034A1043086028
:1025C000704700000CED00E00000FA052DE9F0472F
:1025D0000E46050065D0DFF81481D8F80000F7B288
:1025E00000F00F00B04207D288F80070D8F8000061
:1025F00000F00F00B04254D128683D4C810712D53D
:10260000400703D5206840F4E05020602878000798
:1026100003D5206840F4604020602068A96820F05D
:10262000F000084320602878C0072DD03049686842
:102630000839012812D0022813D0032811D00968C4
:10264000890700292DDA216821F003010143216067
:10265000FFF73AFE814641F2883A0EE009688903A5
:10266000EFE709688901ECE7FFF72EFEA0EB09010F
:10267000514502D90320BDE8F0872068696800F061
:102680000C00B0EB810FEFD1D8F80010404601F0FC
:102690000F01B14207D90770006800F00F00B04287
:1026A00001D00120E7E72878400705D52068E968D0
:1026B00020F4E050084320602878000706D5206801
:1026C000296920F4604040EAC100206000F036F83B
:1026D0002168084AC1F30311515CC84006490860EB
:1026E0000020FFF7FBFE0020C5E70000003C024091
:1026F00008380240104A00085C13002004480549CD
:1027000000680968044AC1F38221515CC8407047DF
:102710005C13002008380240204A0008044805499C
:1027200000680968044AC1F34231515CC8407047EF
:102730005C13002008380240204A0008154810B5F4
:10274000006810F00C02144813D04110042A0FD076
:10275000082A0ED10F4C241F2268236802F03F0282
:102760005B0207D52068C0F38810A0FB010106E0DA
:10277000084610BD2168C1F38811A1FB00010023A8
:10278000FDF786FD2168C1F30141491C4900B0FBFA
:10279000F1F010BD083802400024F4002DE9F84F94
:1027A000050076D02878DFF8F8B2BE4CC00749D0D3
:1027B000DBF800105846C1F38101012908D00068F8
:1027C000C0F3810002280AD1201D0068400206D50E
:1027D0002068800336D568680028E2D032E0686857
:1027E000B0F5803F10D0B0F5A02F206810D020F4B5
:1027F00080302060206820F4802020606868A0B1CC
:10280000FFF762FD06460CE0206840F48030F4E7F4
:1028100040F480202060F7E7FFF756FD801B642816
:1028200073D820688003F7D50CE0FFF74DFD06460E
:1028300005E000BFFFF748FD801B6428F0D8206842
:102840008003F7D42878DFF8608280074FF0000912
:102850003ED5DBF80010584611F00C0F09D0006887
:10286000C0F3810002280BD18D48001F0068400290
:1028700006D42068800715D5E868012809D111E041
:10288000E868B8B10120C8F80000FFF71DFD064652
:1028900005E002E1FFF718FD801B0228C0D8206880
:1028A0008007F7D52068296920F0F80040EAC100C8
:1028B00020600DE0C8F80090FFF706FD064604E032
:1028C000FFF702FD801B02281FD820688007F7D47D
:1028D0002878000722D5724E744869696C3671B148
:1028E00001210160FFF7F0FC074604E0FFF7ECFC74
:1028F000C01B022809D830688007F7D50EE0C0F861
:102900000090FFF7E1FC074605E083E0FFF7DCFC01
:10291000C01B02287ED830688007F7D4287840078B
:1029200068D5DFF87CA100270AF1380ADAF8000040
:10293000C0000BD4DAF8001041F08051CAF8001042
:10294000DAF80000012700F080500090584E3068FF
:10295000C00510D4306840F480703060FFF7B4FCDC
:10296000009005E0FFF7B0FC0099401A022851D80A
:102970003068C005F6D54A4EA868683601280FD0E1
:102980000528306810D020F001003060306820F059
:1029900004003060A868B8B1FFF796FC00900FE023
:1029A000306840F00100F4E740F004003060F7E7E1
:1029B000FFF78AFC0099411A41F28830814264D8BD
:1029C00030688007F4D50EE0FFF77EFC009007E04A
:1029D000FFF77AFC0099411A41F28830814254D8BD
:1029E00030688007F4D42FB1DAF8001021F080515C
:1029F000CAF80010A869C0B3DBF80010C1F3810168
:102A000002294AD00228484607D0C8F86000FFF7DC
:102A10005BFC00E039E005463AE04746C8F8600054
:102A2000FFF752FC064604E0FFF74EFC801B02282D
:102A30002BD820688001F7D4D5E907010843A96A9B
:102A40001C4A490802EB01416A6A41EA82110843C3
:102A500095F82C1040EA01611148001F0160012027
:102A60003866FFF731FC054605E014E0FFF72CFC63
:102A7000401B022809D820688001F7D50BE000BF71
:102A8000FFF722FC401B022802D90320BDE8F88F83
:102A900020688001F4D40020F8E70120F6E7000068
:102AA000083802400038024000004742800E47428A
:102AB000007000400000FFFF7047000038B501685B
:102AC00004464A688868C043430606D5C30704D154
:102AD000D3435B0601D4216C05E0830708D4D343BC
:102AE0001B0605D4616C01B02046BDE830400847A4
:102AF000830603D5430601D5C30551D4D3439B06B2
:102B00004ED443060AD494F85130032B49D0636D58
:102B100043F004036365CB688B680093830609D494
:102B2000636D43F0010363658B6800930B6823F0CA
:102B300040030B60C00506D4606D40F0080060657E
:102B4000206880680090606D002829D02068416866
:102B500021F0E0014160012084F85100900701D488
:102B6000D00722D02068416821F003014160114D57
:102B7000E06C40B10565E06CFFF74DF918B1606D90
:102B800040F040006065A06C002809D00565A06C8D
:102B9000FFF741F9002803D0606D40F04000606508
:102BA00038BDC8688868009038BD2046FFF784FFAC
:102BB00038BD00000138000870B5040005D00025BC
:102BC000A56294F8510010B106E0012070BD84F8B0
:102BD0005050204600F030F8022084F85100206860
:102BE000016821F040010160D4E901010843D4E902
:102BF00003121143084361690843218B01F40071FA
:102C00000843E1690843216A0843A16A084321682F
:102C10000860A069042101EA1040616A0843216844
:102C200048602068C16921F40061C16165650120C7
:102C300084F85100002070BD10B586B00446142100
:102C40006846FDF76FFB17492068884228D116486F
:102C50000021026842F480520260006800F4805053
:102C6000059011481438026842F0010202600068C1
:102C700000F001000590E02000900220CDE9010164
:102C8000032003900520049069460848FFF74EFA98
:102C9000002211462320FFF767FC2320FFF756FC94
:102CA00006B010BD00300140443802400000024030
:102CB0002DE9F84F044690F8500000270A9E1D4663
:102CC00092468B464FF0010901280ED0012084F86E
:102CD0005000FFF7F9FA804694F851006168012826
:102CE0000CD0B1F5827F07D102E00220BDE8F88F59
:102CF000A16809B9042801D00227C2E0BBF1000F86
:102D000027D0BAF1000F24D01DB394F85100042845
:102D100002D0052084F8510000206065C4F838A076
:102D2000E587A587C4F830B0E586A5862064606491
:102D300020680168490603D4016841F04001016040
:102D4000E068B0F5006F606805D0E8B3012D46D0AB
:102D50007FE0012795E008B1012D39D1206B216872
:102D60000088C860206B801C2063E08E401EE086D7
:102D70002EE02068816889070FD5E18E69B1B9F12D
:102D8000010F0AD1216B0988C160206B801C206370
:102D9000E08E401EE0864FF0000920688168C90778
:102DA0000CD0E18F51B1C068A16B0880A06B801C72
:102DB000A063E08F401EE0874FF00109FFF784FA1F
:102DC000A0EB0800B04200E009E001D3701C50D134
:102DD000E08E0028CDD1E08F0028CAD13FE0206BE3
:102DE000216800780873206B401C2063E08E401E31
:102DF000E0862EE02068816889070FD5E18E69B1F1
:102E0000B9F1010F0AD1216B09780173206B401CC5
:102E10002063E08E401EE0864FF000092068816844
:102E2000C9070CD0E18F51B1C068A16B0870A06BCD
:102E3000401CA063E08F401EE0874FF00109FFF7C0
:102E400043FAA0EB0800B04202D3701C01D010E09E
:102E50007EB1E08E0028CDD1E08F0028CAD1424655
:102E60003146204600F0D4FC28B1012720206065BF
:102E700007E0032705E0A06818B92068C1688068EA
:102E80000090012084F85100002084F8500038465A
:102E90002CE710B5401EB0F1807F01D3012010BD9A
:102EA0004FF0E02460610F21601701F05BFA002011
:102EB000A06107202061002010BD70B504460068A5
:102EC000C16821F49071C1602068416921F001015D
:102ED0004161206841694FF0000549060FD54169FD
:102EE00021F040014161606B48B10565606BFEF700
:102EF0004BFF20B1606BFEF7A0FF202805D0E585D1
:102F0000202084F83A00002070BD1020E0630320E8
:102F100070BD704770B5026804461068D168536987
:102F200010F00F0F50D003F0010501F490763543F7
:102F30005DD0C20705D0CA0503D5E26B42F001029D
:102F4000E263420705D5DA0703D0E26B42F00202E2
:102F5000E263820705D5DA0703D0E26B42F0040290
:102F6000E263020705D5DA0703D0E26B42F00802FC
:102F7000E263E26B002A33D0800604D5880602D5CE
:102F8000204600F0E6FD20684069E16BC0F3801048
:102F9000090700D428B3204600F0C4FD2068416929
:102FA00049061AD5416921F040014161606BA0B129
:102FB0001B490165606BFEF72EFF002810D0606B87
:102FC000016DBDE870400847830610D58B060ED50D
:102FD0002046BDE8704000F0BCBD2046FFF799FFD9
:102FE00070BD2046FFF795FF0020E06370BD03062B
:102FF00006D50B0604D52046BDE8704001F012B995
:103000004006F3D54806F1D5D168204621F04001AD
:10301000D160202184F8391000F082FA70BD0000E0
:103020004D3A000870B5040004D094F8390000252A
:1030300010B106E0012070BD84F83850204600F041
:1030400023F8242084F839002068C16821F4005155
:10305000C160204600F090FF2068016921F4904192
:1030600001612068416921F02A0141612068C1683D
:1030700041F40051C160E563202084F8390084F8F0
:103080003A00002070BD00002DE9F04F87B00546E2
:1030900014216846FDF746F99E48DFF8748214381B
:1030A000D5F800C0DFF86C92022101220323DFF87B
:1030B00068E24027002406154FF0070BC44558D19D
:1030C000D9F8008048F01008C9F80080D9F800C08D
:1030D0000CF0100CCDF814C0D0F800C04CF0010C6E
:1030E000C0F800C0006800F00100059058028DE8AB
:1030F0000F0869467046FFF719F8DFF824A28749E0
:1031000050464FF00069CAF80010C0E90194C0E9C8
:103110000346CAF81440CAF81840CAF81C40CAF856
:103120002040B046CAF82440FEF75AFF08B1FEF727
:103130002AFE7C4EC5F834A0CAF83850C6E902749D
:10314000C6E90484B4617548F4613462783074620D
:10315000C6E900093046FEF743FF08B1FEF713FE4B
:103160002E63002211462520B563FFF7FDF92520C7
:1031700064E0DFF8B481C44565D1DFF898C1A246A8
:10318000ACF1040CDCF8008048F40038CCF8008086
:10319000DCF800C00CF4003CCDF814C0D0F800C03E
:1031A0004CF0010CC0F800C0006800F00100059070
:1031B0000C208DE80F0869467046FEF7B7FFDFF870
:1031C00070915A4948464FF00068C9F80010C0E9AC
:1031D0000184C0E90346C9F81440C9F81840C9F889
:1031E0001C40C9F82040C9F82440FEF7F9FE08B198
:1031F000FEF7C9FD4F4CC5F834904C48C9F838501B
:103200001830A760C4E90008C4E903A6C4F814A0F4
:10321000C4F818A0C4F81CA0C4F820A02046C4F824
:1032200024A0FEF7DDFE08B1FEF7ADFD2C63002201
:1032300011462620A563FFF797F92620FFF786F9A8
:1032400007B0BDE8F08FDFF8F080C445F8D1D9F8B9
:103250000080A24648F02008C9F80080D9F800C0D4
:103260000CF0200CCDF814C0D0F800C04CF0040CC9
:10327000C0F800C0006800F004000590C0208DE890
:103280000F000820049069462C48FEF74FFF2349A1
:10329000DFF8AC80183940464FF02069C8F80010BC
:1032A000C0E90194C0E90346C8F81440C8F81840C2
:1032B000C8F81C40C8F82040C8F82440FEF790FE2B
:1032C00008B1FEF760FD1F4CC5F834801348C8F8FC
:1032D00038506030A760C4E90009C4E903A6C4F807
:1032E00014A0C4F818A0C4F81CA0C4F820A020465C
:1032F000C4F824A0FEF774FE08B1FEF744FD2C6369
:10330000002211464720A563FFF72EF9472095E7D5
:103310000010014044380240000002404064024076
:1033200070160020D0160020004400408860024043
:1033300030170020901700200014014000080240C0
:10334000F017002050180020F8B5044690F83A0015
:1033500020283CD1C1B3BAB394F83800012836D044
:10336000012084F83800A162A2850025E5632220AF
:1033700084F83A00636B1748D863636B1648186487
:10338000636B1648D864606B134605650846666B28
:10339000216802463046091DFEF78CFE2068016850
:1033A0004168009184F83850C16841F48071C1606F
:1033B0002068416941F0010141612068416941F0A3
:1033C000400141610020F8BDFFE70120FBE702203A
:1033D000F9E70000A73A0008E33A00085D3A000860
:1033E000704770472DE9F843044690F839001F46AE
:1033F00016460D46202850D1A5B19EB194F838004C
:1034000001284AD0012084F838004FF00008C4F8A1
:103410003C80212084F83900FEF756FFA6848146BF
:10342000E68426E00120BDE8F883E08C401EE084BD
:10343000A0684B46B0F5805F4FF000024FF080016E
:103440002046009703D000F01EFFE8B90DE000F021
:103450001AFFC8B928882168C0F3080048602069AD
:1034600008B16D1C05E0AD1C03E0216815F8010BE7
:103470004860E08C0028D8D14B46002240212046ED
:10348000009700F000FF08B10320CCE7202084F86B
:10349000390084F838800020C5E70220C3E7000027
:1034A00070B5044690F83900202830D169B362B372
:1034B00094F8380001282AD0012084F838002162CD
:1034C000A284E2840025E563212084F83900236B7F
:1034D0001048D863236B10481864236B0F48D864D6
:1034E000206B134605652668206B321DFEF7E2FD52
:1034F00021686FF04000086084F838502068416906
:1035000041F080014161002070BD012070BD0220AA
:1035100070BD0000ED3A00081B3B00085D3A000852
:1035200070B5044600680C490C4D884202D12869E8
:10353000FDF7F2FD0A492068884202D16869FDF76B
:10354000EBFD08492068884204D1A869BDE87040B5
:10355000FDF7E2BD70BD000000100140881300209F
:1035600000440040001401407047FEE710B5074AD0
:1035700000210748FDF71AFE06490028086003D11C
:1035800005A000F0DFFE002010BD0000284A000862
:10359000B53500084C1400204C4544205468726531
:1035A000616420637265617465206661696C65643D
:1035B000200D0A000D4C4FF400664FF4FA750022FE
:1035C00031462046FEF77BFE2846FDF713F8012220
:1035D00031462046FEF773FE2846FDF70BF8002221
:1035E00011460220FDF7D0FDE9E70000000002408F
:1035F000214808B5016841F400110160016801F437
:1036000000110091016841F480010160006800220E
:1036100000F48000009011461020FEF7A5FF102056
:10362000FEF794FF002211461120FEF79DFF1120A6
:10363000FEF78CFF002211463920FEF795FF392056
:10364000FEF784FF002211463A20FEF78DFF3A2054
:10365000FEF77CFF002211464520FEF785FF45203E
:10366000FEF774FF002211464620FEF77DFFBDE8FD
:1036700008404620FEF76ABF303802402DE9F0418D
:1036800086B014216846FCF74DFE464800240168C8
:1036900041F004010160016801F004010591016835
:1036A00041F080010160016801F08001059101682D
:1036B00041F001010160016801F00101059101681B
:1036C00041F0020101600068374E00F002000590F1
:1036D00000224FF400513046FEF7F1FD334F012236
:1036E00041F610113846FEF7EAFD0122202130464E
:1036F000FEF7E5FDDFF8B880002224214046FEF702
:10370000DEFD00224FF400413846FEF7D8FD0122CD
:103710004FF404714046FEF7D2FD42F220000090C3
:103720000125CDE90154694630460394FEF7FEFCBD
:1037300049F610100090CDE90154694638460394CB
:10374000FEF7F4FC092000900320CDE9010469464E
:103750004046FEF7EBFC022000901648CDE901043C
:1037600069464046FEF7E2FC4FF40D700090CDE94B
:103770000154694640460394FEF7D8FCA802CDE9FF
:103780000004694640460294FEF7D0FC0022114630
:103790000720FEF7E9FE0720FEF7D8FE06B0BDE8D9
:1037A000F081000030380240000802400000024072
:1037B00000040240000011100C480B494FF4007245
:1037C00001604FF48271416000218160C16001613C
:1037D000C0E905121822C0E90721416281620A216D
:1037E000C162FFF7E9B90000003001405815002020
:1037F000FEE770470148FFF761B900005815002047
:1038000010B5806B0021C187C186FFF755F910BD47
:1038100038B504461248134B0068B0FBF3F04FF480
:103820007A73584300906068B0F5827F0DD10B46E3
:10383000009200228021204600F016F870B1606DE1
:1038400040F020006065032038BD009830B1401E74
:10385000009020688068C0430006F6D5002038BD7F
:103860005C13002000366E012DE9F0411D4617461D
:103870000E460446DDF8188008E0681C06D0FEF706
:1038800023FDA0EB0800A8420BD255B12068806848
:1038900036EA000030D00020B842EED10020BDE86A
:1038A000F0812068416821F0E00141606068B0F576
:1038B000827F0BD1A068B0F5004F02D0B0F5806FC9
:1038C00004D12068016821F040010160A06AB0F5D0
:1038D000005F09D12068016821F40051016020686F
:1038E000016841F400510160012084F8510000207A
:1038F00084F850000320D2E70120CDE730B593B023
:1039000030216846FCF70EFD14210CA8FCF70AFDD7
:1039100019480025016841F080510160006800F0FD
:10392000805011901548016821F4404141F4004154
:1039300001600068022400F44040119001200090D2
:10394000000401908001CDE9064008AA042054211A
:1039500082E813000B906846FEF720FF0CA90F20A9
:1039600081E83100E002CDE90F0502210CA8FEF745
:103970002DFE13B030BD0000403802400070004002
:1039800070B5194C2068194A10F00C01184804D081
:103990005510042903D0082903D002601BE00560FC
:1039A00019E01149091F0B68C3F380560B6803F037
:1039B0003F0316B1B5FBF3F201E0B2FBF3F20B6883
:1039C0000968C3F388135A43C1F30141491C4900F4
:1039D000B2FBF1F101602168064AC1F30311515CA9
:1039E0000268CA40026070BD083802400024F4003A
:1039F0005C130020104A00081048016841F470016F
:103A000001600F48016841F0010101600C4A00218A
:103A10000832116002680B4B1A400260031D0A4A0B
:103A20001A60026822F48022026005480C300160AE
:103A300002495806803908607047000088ED00E0B0
:103A400000380240FFFFF6FE1030002410B5806BF6
:103A50000021C185C184FFF75CFA10BD70B5846B8D
:103A60002068406994F83910C0F3C010002521295E
:103A700004D118B1E584204600F062F8206840695E
:103A800094F83A10C0F38010222904D118B1E585CA
:103A9000204600F047F8E06B40F01000E06320465D
:103AA000FFF737FA70BD10B50146806B09680968E9
:103AB000C90513D40021C1850168CA6822F4807247
:103AC000CA6001684A6922F001024A6101684A69D4
:103AD00022F040024A61202180F83A10FFF780FC72
:103AE00010BD10B5806BFFF77CFC10BD10B5014612
:103AF000806B09680968C9050CD40021C18401687C
:103B00004A6922F080024A610068C16841F04001C0
:103B1000C16010BDFFF704FD10BD10B5806BFFF74D
:103B200023FD10BD0168CA6822F49072CA60016862
:103B30004A6922F001024A61202180F83A10704758
:103B40000168CA6822F0C002CA60202180F83910DA
:103B5000704710B590F83A10222901D0022010BD0C
:103B60008168B1F5805F11D00169002901681FD01B
:103B7000496801F07F03816A4A1C82620B70C18D23
:103B8000491E0904090CC18518D02BE00269816A1D
:103B9000002A0268526805D0D2B20A80816A491CA4
:103BA0008162ECE7C2F308020A80816A891CF7E7A8
:103BB0004A68816A4B1C83620A70E0E70168CA6840
:103BC00022F02002CA600168CA6822F48072CA60CA
:103BD00001684A6922F001024A61202180F83A1006
:103BE000FFF7FEFB002010BDF8B5054600680E4645
:103BF0000168C1F3001100295FD00168416800919C
:103C0000016840682846FFF758F9686B006840680B
:103C10002A492B4CC0F500708D4215D1294D2168E1
:103C200000231A4645F8210005EB8101E069FCF705
:103C300089FD2068314655F8202005F1780000F014
:103C400017FD0A21204634E01F498D4217D11D4D32
:103C500061682835002345F8210005EB81011A46EB
:103C6000206AFCF76FFD6068314655F8202005F1A9
:103C7000600000F0FDFC12480A21001D19E0134904
:103C80008D421AD10F4DA1685035002345F821000F
:103C900005EB81011A46606AFCF754FDA0683146C5
:103CA00055F8202005F1480000F0E2FC04480A2104
:103CB0000830BDE8F84000F0C4BDF8BDB0150020E4
:103CC00088130020B0240020F015002030160020BA
:103CD00070B544494FF480652A46A1F1300000F0E8
:103CE000EBFC414C08B141A063E048492A46A1F5EC
:103CF000846000F0E1FC08B145A05AE04C492A4636
:103D0000A1F5016000F0D8FC08B14AA051E0364AA4
:103D100000214C320120FDF7EDF9206188B3324AD1
:103D200000215C320120FDF7E5F9606150B32E4AB5
:103D300000216C320120FDF7DDF9A061002826D0BA
:103D4000294A04217C320A20FCF7EAFCE0610028C1
:103D50001FD0254A042194320A20FCF7E1FC20629E
:103D6000002818D0204A0421AC320A20FCF7D8FCE5
:103D70006062002811D000F015FE00280FD035A099
:103D800017E000E001E038A013E040A011E048A0F7
:103D90000FE050A00DE059A00BE062A009E0124A2C
:103DA000002128326948FDF701FAE060002818D1A7
:103DB00067A000F0C7FA0B48303800F053FC094800
:103DC000203800F04FFC0748103800F04BFCE06949
:103DD000FCF75EFC206AFCF75BFC606AFCF758FCB1
:103DE000002070BD58250020881300207561727472
:103DF00031205278206669666F20696E697420668A
:103E000061696C6564200D0A0000000058290020DB
:103E10007561727432205278206669666F20696E0F
:103E20006974206661696C6564200D0A00000000F9
:103E3000582D0020756172743620527820666966AC
:103E40006F20696E6974206661696C6564200D0A73
:103E50000000000045535020696E69742066616956
:103E60006C6564200D0A0000756172743120736501
:103E70006D6170686F72652063726561746520663C
:103E800061696C6564200D0A000000007561727440
:103E9000322073656D6170686F7265206372656151
:103EA0007465206661696C6564200D0A000000007D
:103EB00075617274362073656D6170686F7265200C
:103EC000637265617465206661696C6564200D0AC2
:103ED000000000007561727431207278206D657386
:103EE00073616765207175657565206372656174BE
:103EF00065206661696C6564200D0A0075617274E5
:103F000032207278206D6573736167652071756505
:103F1000756520637265617465206661696C6564AE
:103F2000200D0A007561727436207278206D6573F9
:103F3000736167652071756575652063726561746D
:103F400065206661696C6564200D0A006D3F00089C
:103F500043544C20546872656164206372656174D7
:103F600065206661696C6564200D0A0000F0E4FB61
:103F70000220FCF73FFBF9E72DE9F0410446006819
:103F80000169E26821F44051114301612169A0688F
:103F9000E26908436169114322680843D16849F224
:103FA0000C6399430143D16020684169A26921F4FF
:103FB000407111434161E2696425B2F5004F9748B1
:103FC000974922684FF032083FD08A4201D082429E
:103FD0007CD1FEF7A3FB00EBC00101EB0010616890
:103FE0008900B0FBF1F6FEF799FB00EBC00101EB95
:103FF000001061688900B0FBF1F0B0FBF5F06FF0E4
:104000001801484306EB800108EB0110B0FBF5F006
:1040100000F0F006FEF782FB00EBC00101EB0010A0
:1040200061688900B0FBF1F0B0FBF5F006EB00161B
:10403000FEF774FB00EBC00101EB00106168890022
:10404000B0FBF1F7FEF76AFBD2E08A4201D0824270
:104050003DD1FEF763FB00EBC00101EB001061688E
:104060004900B0FBF1F0B0FBF5F00601FEF756FB9E
:1040700000EBC00101EB001061684900B0FBF1F7F3
:10408000FEF74CFB00EBC00101EB0010616849003A
:10409000B0FBF1F0B0FBF5F06FF01801484307EB0F
:1040A000800108EBC100B0FBF5F000F0F80006EB72
:1040B0004006FEF733FB00EBC00101EB0010616826
:1040C0004900B0FBF1F7FEF729FB3CE055E0FEF7B5
:1040D00015FB00EBC00101EB001061684900B0FB6B
:1040E000F1F0B0FBF5F00601FEF708FB00EBC001B4
:1040F00001EB001061684900B0FBF1F7FEF7FEFA32
:1041000000EBC00101EB001061684900B0FBF1F069
:10411000B0FBF5F06FF01801484307EB800108EBA6
:10412000C100B0FBF5F000F0F80006EB4006FEF72A
:10413000E5FA00EBC00101EB001061684900B0FB3B
:10414000F1F7FEF7DBFA00EBC00101EB001061684C
:104150004900B0FBF1F0B0FBF5F06FF018014843F7
:1041600007EB800108EBC100B0FBF5F000F00700A1
:10417000216830448860BDE8F081FEF7BFFA00EBAB
:10418000C00101EB001061688900B0FBF1F6FEF799
:10419000B5FA00EBC00101EB001061688900B0FBCB
:1041A000F1F0B0FBF5F06FF01801484306EB800129
:1041B00008EB0110B0FBF5F000F0F006FEF79EFAF8
:1041C00000EBC00101EB001061688900B0FBF1F069
:1041D000B0FBF5F006EB0016FEF790FA00EBC0011D
:1041E00001EB001061688900B0FBF1F7FEF786FA79
:1041F00000EBC00101EB001061688900B0FBF1F039
:10420000B0FBF5F06FF01801484307EB800108EBB5
:104210000110B0FBF5F000F00F00A9E70014014019
:104220000010014090F83910212901D00220704778
:104230008168B1F5805F016A0BD04A1C0262026896
:1042400009785160C18C491E0904090CC1840ED043
:1042500017E009880268C1F308015160016900296B
:10426000016A02D0491C0162ECE7891CFBE7016886
:10427000CA6822F08002CA600068C16841F040014B
:10428000C160002070472DE9F041984617460E4660
:104290000446069D1DE0681C1BD02DB1FEF714F8E6
:1042A000A0EB0800A84214D92068C16821F4D0719D
:1042B000C1602068416921F001014161202084F83A
:1042C000390084F83A00002084F838000320BDE863
:1042D000F0812068006836EA000004D00020B8426F
:1042E000D9D00020F3E70120F9E7000010B5044819
:1042F000FEF710FEBDE8104002490148FFF774BC0C
:10430000B0150020B018002010B50448FEF702FEDA
:10431000BDE8104002490148FFF766BCF0150020D7
:10432000B01C002010B50448FEF7F4FDBDE81040B5
:1043300002490148FFF758BC30160020B020002089
:10434000FEE700000FB4054B10B503A9044A02981C
:1043500000F028F810BC5DF814FB00006D47000861
:104360005C1400200907090E002804DB00F1E0209E
:1043700080F80014704700F00F0000F1E02080F892
:10438000141D704702E008C8121F08C1002AFAD1A4
:1043900070477047002001E001C1121F002AFBD1C5
:1043A000704700002DE9FF4F8DB09B460F46044635
:1043B000002606E025280BD05A460F999047641C2A
:1043C000761C20780028F5D111B03046BDE8F08F7A
:1043D0000025A8460122984900E0054314F8013F52
:1043E000203B02FA03F00842F7D120782E2817D19B
:1043F00014F8010F45F004052A280ED06FF02F02A3
:104400002078A0F1300109290AD808EB880102EBD5
:10441000410100EB0108641CF2E757F8048B641CAF
:1044200020786C280DD004DC4C2812D06A2811D1D9
:1044300004E074280DD07A280CD10AE045F4001568
:1044400007E0617845F48015814202D1641C05F5CE
:104450008015641C2278692A45D008DC002AB3D074
:10446000582A69D0632A10D0642A08D13BE0702A08
:1044700067D0732A13D0752A5CD0782A5CD0104696
:104480005A460F999047761CD3E017F8040B8DF825
:10449000000000208DF80100E946012003E057F8F4
:1044A000049B4FF0FF3069074FF0000501D40AE08C
:1044B0006D1C45450DDA8542FADB19F80510002917
:1044C000F6D106E06D1C8542FCDB19F805100029C9
:1044D000F8D12E4404E019F8010B5A460F99904781
:1044E0006D1EF8D2A5E00A200021CDE90801C5F330
:1044F000025002280DD001CFC117031E71F1000335
:104500000DDA4FF0000CD0EB0C006CEB01012D2309
:1045100008E0FF1D27F00707F7E80201EDE72B058C
:1045200004D52B238DF8283001233BE0EB0739D04D
:104530002023F7E70A2000E010200021CDE9080140
:1045400007E01020002145F00405CDE908014FF0F7
:104550000808C5F3025002280FD001CF00214FF008
:10456000000A2B071FD5702A0DD0DDE908C38CF097
:10457000100C5CEA030C0CD015E0FF1D27F00707B8
:10458000F7E80201EBE740228DF828204FF0010AFE
:104590000BE050EA010306D030238DF828308DF867
:1045A000292002239A46582A04D024A20DF120097A
:1045B0000B9209E026A2F9E7DDE90823FBF768FE84
:1045C0000B9B9B5C09F8013D50EA0102F4D1ADEB75
:1045D000090020300890680701D44FF001080899BD
:1045E000884502DDA8EB010000E0002080460025A0
:1045F00006E00AA85A46405D0F9990476D1C761C4C
:104600005545F6DB04E030205A460F999047761C5A
:10461000B8F10001A8F10108F5DC05E019F8010B7B
:104620005A460F999047761C0899481E0890002911
:10463000F4DC641CC5E60000092801003031323387
:1046400034353637383961626364656600000000CE
:1046500030313233343536373839414243444546B8
:10466000000000000021016041608160C16070476E
:104670002DE9F041836814460F4605465B1C00F0A7
:1046800053F8844200D904462968A86808401E1AD5
:10469000A64200D92646E968324608443946FBF767
:1046A00028FEA21BB919E868FBF723FE28682044FE
:1046B00028602046BDE8F08170B50B46022A0ED373
:1046C000541E22424FF0000109D1C3600160C0E9CD
:1046D000011411461846FBF725FE002070BD01208D
:1046E00070BD2DE9F04105460F46D5E900138068FD
:1046F0001446421CC91A8C4200D90C461840161A9E
:10470000A64200D92646E968324601443846FBF7FE
:10471000F0FDA21BB819E968FBF7EBFD68682044BF
:1047200068602046BDE8F081D0E900128068891AEF
:10473000401A401C7047000010B50A21094800F0DB
:1047400089F8010002D0074800F00CF90A21064858
:1047500000F0D4F8010002D0034800F0AFF80020C8
:1047600010BD0000B01E0020B01A002013B54FF697
:10477000FF73012269460248FEF734FE00981CBD13
:10478000B0150020FFF7FCF8FDF78EFEFFF7B6F836
:10479000FEF774FFFEF72CFF224821490024016038
:1047A0002149C0E901144FF48041C0E9034144614B
:1047B0008461C4610462FDF789FD1A481B49AC306D
:1047C0004FF4E1350160C0E901540C26C460C0E932
:1047D00004468461C461FEF725FC12481449EC309C
:1047E0000160C0E90154C460C0E904468461C46149
:1047F000FEF718FC10480F490160C0E90154C4607D
:10480000C0E904468461C461FEF70CFCFEF7D4FFE6
:10481000FBF716FFFDF776F9FBF728FFFEE7000030
:104820000054004004150020A08601000010014043
:10483000004400400014014030160020FEE7FEE76F
:1048400070470268521C02608A4201D30021016055
:104850007047000038B504460E480B4600226946F2
:10486000C069FBF727FF88B921460B48009AFFF77C
:1048700038FF04464FF4007208490948FEF764FD0A
:104880000098844204D007A0FFF75CFD002038BDEB
:10489000204638BD8813002028250020B0180020AD
:1048A000B0150020756172743120727820666966D7
:1048B0006F206572726F720D0A0000008AB210B527
:1048C00001460748FEF7ECFD064864210069FCF745
:1048D000E5FB002803D004A0FFF734FD012010BD44
:1048E000B01500208813002075617274312074782F
:1048F000206572726F720D0A0000000038B5044620
:104900000E480B4600226946006AFBF7D3FE88B9C1
:1049100021460B48009AFFF7E4FE04464FF400726C
:1049200008490948FEF710FD0098844204D007A00A
:10493000FFF708FD002038BD204638BD8813002051
:1049400038250020B01C0020F0150020756172741D
:1049500032207278206669666F206572726F720D00
:104960000A0000008AB210B501460748FEF798FD1C
:10497000064864214069FCF791FB002803D004A09D
:10498000FFF7E0FC012010BDF01500208813002087
:104990007561727432207478206572726F720D0ABC
:1049A00000000000124810B50068C16841F0100115
:1049B000C1604FF4007422460E490D48FEF7C4FC56
:1049C0000D480068C16841F01001C16022460B49E2
:1049D0000948FEF7B9FC0A480068C16841F01001B7
:1049E000C160224607490648FEF7AEFC002010BD14
:1049F000B0150020B0180020F0150020B01C0020D9
:104A000030160020B02000200006101600061016F8
:104A1000000000000000000001020304060708096E
:104A2000000000000102030400000000000000007C
:104A30000000000000000000000000000000000076
:104A4000180000000000000000000000000000004E
:104A500000000000C410002044000000501100209D
:104A60000001000001000000000000000000000044
:104A700000000000000000000811002044000000B9
:104A8000501200200001000028000000000000007B
:104A900000000000000000000000000040100020A6
:104AA00034000000741000205000000000000000DE
:104AB00055415254315F53656D6170686F72650086
:104AC00055415254325F53656D6170686F72650075
:104AD00055415254365F53656D6170686F72650061
:104AE00075617274315F72785F444D415F4D6573DB
:104AF0007361676551756575650000007561727455
:104B0000325F72785F444D415F4D657373616765D5
:104B1000517565756500000075617274365F727855
:104B20005F444D415F4D6573736167655175657590
:104B30006500000003000000E8030000050000001D
:104B40000010002010000000000000000000000025
:104B50000000000000000000000000000000000055
:104B60000000002000100000000000000000000015
:104B70000000000000000000000000000000000035
:104B80000000000000000000000100004C4A000886
:104B9000704A0008944A000804000000525458204B
:104BA00056352E342E300000C84B0008000000207F
:104BB000041500009C030008284C00080415002080
:104BC0009C2000009443000801FF01FF01FF01FF4A
:104BD00001FF01FF01FF01FF01FF01FF01FF01FFD5
:104BE00001FF01FF01FF01FF01FF01FF01FF016361
:104BF00032018210031A24F42202024830194CB206
:104C00001813B04AC208DAC010DAD010DAE0108106
:104C10000A15FC180B14184B1801141A9C2C1CC0F4
:084C20008CFBA2019A000000C8
:040000050800019559
:00000001FF
